{
  "_format": "hh-sol-artifact-1",
  "contractName": "FrogLottery",
  "sourceName": "contracts/frogs/FrogLottery.sol",
  "abi": [
    {
      "inputs": [
        {
          "internalType": "address",
          "name": "_token0",
          "type": "address"
        },
        {
          "internalType": "address",
          "name": "_token1",
          "type": "address"
        },
        {
          "internalType": "address",
          "name": "_frogReferalAddress",
          "type": "address"
        },
        {
          "internalType": "bool",
          "name": "_isEthLottery",
          "type": "bool"
        },
        {
          "internalType": "address",
          "name": "_beneficiary",
          "type": "address"
        },
        {
          "internalType": "uint256",
          "name": "_pancakePID",
          "type": "uint256"
        }
      ],
      "stateMutability": "nonpayable",
      "type": "constructor"
    },
    {
      "anonymous": false,
      "inputs": [
        {
          "indexed": true,
          "internalType": "address",
          "name": "_oldBeneficiary",
          "type": "address"
        },
        {
          "indexed": true,
          "internalType": "address",
          "name": "_newBeneficiary",
          "type": "address"
        }
      ],
      "name": "BeneficiaryChanged",
      "type": "event"
    },
    {
      "anonymous": false,
      "inputs": [
        {
          "indexed": true,
          "internalType": "address",
          "name": "_participant",
          "type": "address"
        },
        {
          "indexed": false,
          "internalType": "uint256",
          "name": "_amount",
          "type": "uint256"
        },
        {
          "indexed": false,
          "internalType": "uint256",
          "name": "_oldBalance",
          "type": "uint256"
        }
      ],
      "name": "Deposit",
      "type": "event"
    },
    {
      "anonymous": false,
      "inputs": [
        {
          "indexed": true,
          "internalType": "uint256",
          "name": "_drawNumber",
          "type": "uint256"
        },
        {
          "indexed": false,
          "internalType": "uint256",
          "name": "_fundTotal",
          "type": "uint256"
        },
        {
          "indexed": false,
          "internalType": "uint256",
          "name": "_rewardTotal",
          "type": "uint256"
        }
      ],
      "name": "Draw",
      "type": "event"
    },
    {
      "anonymous": false,
      "inputs": [
        {
          "indexed": true,
          "internalType": "uint256",
          "name": "_oldFeePercent",
          "type": "uint256"
        },
        {
          "indexed": true,
          "internalType": "uint256",
          "name": "_newFeePercent",
          "type": "uint256"
        }
      ],
      "name": "FeePercentChanged",
      "type": "event"
    },
    {
      "anonymous": false,
      "inputs": [
        {
          "indexed": true,
          "internalType": "address",
          "name": "_newParticipant",
          "type": "address"
        }
      ],
      "name": "NewParticipant",
      "type": "event"
    },
    {
      "anonymous": false,
      "inputs": [
        {
          "indexed": true,
          "internalType": "address",
          "name": "previousOwner",
          "type": "address"
        },
        {
          "indexed": true,
          "internalType": "address",
          "name": "newOwner",
          "type": "address"
        }
      ],
      "name": "OwnershipTransferred",
      "type": "event"
    },
    {
      "anonymous": false,
      "inputs": [
        {
          "indexed": true,
          "internalType": "uint256",
          "name": "_drawNumber",
          "type": "uint256"
        },
        {
          "indexed": true,
          "internalType": "address",
          "name": "_winner",
          "type": "address"
        },
        {
          "indexed": false,
          "internalType": "uint256",
          "name": "_amount",
          "type": "uint256"
        }
      ],
      "name": "Victory",
      "type": "event"
    },
    {
      "anonymous": false,
      "inputs": [
        {
          "indexed": true,
          "internalType": "address",
          "name": "_participant",
          "type": "address"
        },
        {
          "indexed": false,
          "internalType": "uint256",
          "name": "_amount",
          "type": "uint256"
        },
        {
          "indexed": false,
          "internalType": "uint256",
          "name": "_oldBalance",
          "type": "uint256"
        }
      ],
      "name": "Withdraw",
      "type": "event"
    },
    {
      "inputs": [
        {
          "components": [
            {
              "internalType": "address",
              "name": "wallet",
              "type": "address"
            },
            {
              "internalType": "uint256",
              "name": "reward",
              "type": "uint256"
            }
          ],
          "internalType": "struct IFrogReferal.ReferersRewardInfo[]",
          "name": "data",
          "type": "tuple[]"
        },
        {
          "internalType": "uint256",
          "name": "referersReward",
          "type": "uint256"
        }
      ],
      "name": "afterDraw",
      "outputs": [],
      "stateMutability": "nonpayable",
      "type": "function"
    },
    {
      "inputs": [
        {
          "internalType": "address",
          "name": "",
          "type": "address"
        }
      ],
      "name": "alreadyParticipant",
      "outputs": [
        {
          "internalType": "bool",
          "name": "",
          "type": "bool"
        }
      ],
      "stateMutability": "view",
      "type": "function"
    },
    {
      "inputs": [
        {
          "internalType": "address",
          "name": "",
          "type": "address"
        }
      ],
      "name": "balanceOf",
      "outputs": [
        {
          "internalType": "uint256",
          "name": "",
          "type": "uint256"
        }
      ],
      "stateMutability": "view",
      "type": "function"
    },
    {
      "inputs": [],
      "name": "beneficiary",
      "outputs": [
        {
          "internalType": "address",
          "name": "",
          "type": "address"
        }
      ],
      "stateMutability": "view",
      "type": "function"
    },
    {
      "inputs": [],
      "name": "claimReward",
      "outputs": [],
      "stateMutability": "nonpayable",
      "type": "function"
    },
    {
      "inputs": [
        {
          "internalType": "uint256",
          "name": "amountToken0",
          "type": "uint256"
        },
        {
          "internalType": "uint256",
          "name": "amountToken1",
          "type": "uint256"
        }
      ],
      "name": "deposit",
      "outputs": [
        {
          "internalType": "bool",
          "name": "success",
          "type": "bool"
        }
      ],
      "stateMutability": "payable",
      "type": "function"
    },
    {
      "inputs": [
        {
          "internalType": "address",
          "name": "",
          "type": "address"
        }
      ],
      "name": "depositOf",
      "outputs": [
        {
          "internalType": "uint256",
          "name": "",
          "type": "uint256"
        }
      ],
      "stateMutability": "view",
      "type": "function"
    },
    {
      "inputs": [],
      "name": "draw",
      "outputs": [],
      "stateMutability": "nonpayable",
      "type": "function"
    },
    {
      "inputs": [],
      "name": "drawNumber",
      "outputs": [
        {
          "internalType": "uint256",
          "name": "",
          "type": "uint256"
        }
      ],
      "stateMutability": "view",
      "type": "function"
    },
    {
      "inputs": [],
      "name": "farmTotal",
      "outputs": [
        {
          "internalType": "uint256",
          "name": "",
          "type": "uint256"
        }
      ],
      "stateMutability": "view",
      "type": "function"
    },
    {
      "inputs": [
        {
          "internalType": "uint256",
          "name": "_amount",
          "type": "uint256"
        },
        {
          "internalType": "address",
          "name": "_tokenIn",
          "type": "address"
        },
        {
          "internalType": "address",
          "name": "_tokenOut",
          "type": "address"
        }
      ],
      "name": "getPSRate",
      "outputs": [
        {
          "internalType": "uint256",
          "name": "",
          "type": "uint256"
        }
      ],
      "stateMutability": "view",
      "type": "function"
    },
    {
      "inputs": [],
      "name": "getParticipants",
      "outputs": [
        {
          "internalType": "address[]",
          "name": "result",
          "type": "address[]"
        },
        {
          "internalType": "uint256",
          "name": "counter",
          "type": "uint256"
        }
      ],
      "stateMutability": "view",
      "type": "function"
    },
    {
      "inputs": [
        {
          "internalType": "address",
          "name": "_participant",
          "type": "address"
        }
      ],
      "name": "isParticipant",
      "outputs": [
        {
          "internalType": "bool",
          "name": "",
          "type": "bool"
        }
      ],
      "stateMutability": "view",
      "type": "function"
    },
    {
      "inputs": [],
      "name": "lpDecimals",
      "outputs": [
        {
          "internalType": "uint256",
          "name": "",
          "type": "uint256"
        }
      ],
      "stateMutability": "view",
      "type": "function"
    },
    {
      "inputs": [],
      "name": "maxUsd",
      "outputs": [
        {
          "internalType": "uint256",
          "name": "",
          "type": "uint256"
        }
      ],
      "stateMutability": "view",
      "type": "function"
    },
    {
      "inputs": [],
      "name": "minUsd",
      "outputs": [
        {
          "internalType": "uint256",
          "name": "",
          "type": "uint256"
        }
      ],
      "stateMutability": "view",
      "type": "function"
    },
    {
      "inputs": [],
      "name": "owner",
      "outputs": [
        {
          "internalType": "address",
          "name": "",
          "type": "address"
        }
      ],
      "stateMutability": "view",
      "type": "function"
    },
    {
      "inputs": [
        {
          "internalType": "uint256",
          "name": "",
          "type": "uint256"
        }
      ],
      "name": "participants",
      "outputs": [
        {
          "internalType": "address",
          "name": "",
          "type": "address"
        }
      ],
      "stateMutability": "view",
      "type": "function"
    },
    {
      "inputs": [],
      "name": "rateLPTokens",
      "outputs": [
        {
          "internalType": "uint256",
          "name": "lpToken0",
          "type": "uint256"
        },
        {
          "internalType": "uint256",
          "name": "lpToken1",
          "type": "uint256"
        }
      ],
      "stateMutability": "view",
      "type": "function"
    },
    {
      "inputs": [
        {
          "internalType": "bytes",
          "name": "message",
          "type": "bytes"
        },
        {
          "internalType": "uint8",
          "name": "v",
          "type": "uint8"
        },
        {
          "internalType": "bytes32",
          "name": "r",
          "type": "bytes32"
        },
        {
          "internalType": "bytes32",
          "name": "s",
          "type": "bytes32"
        },
        {
          "internalType": "uint256",
          "name": "amountToken0",
          "type": "uint256"
        },
        {
          "internalType": "uint256",
          "name": "amountToken1",
          "type": "uint256"
        }
      ],
      "name": "registerBeforeDeposit",
      "outputs": [
        {
          "internalType": "bool",
          "name": "success",
          "type": "bool"
        }
      ],
      "stateMutability": "payable",
      "type": "function"
    },
    {
      "inputs": [],
      "name": "renounceOwnership",
      "outputs": [],
      "stateMutability": "nonpayable",
      "type": "function"
    },
    {
      "inputs": [
        {
          "internalType": "address",
          "name": "",
          "type": "address"
        }
      ],
      "name": "rewardOf",
      "outputs": [
        {
          "internalType": "uint256",
          "name": "",
          "type": "uint256"
        }
      ],
      "stateMutability": "view",
      "type": "function"
    },
    {
      "inputs": [
        {
          "internalType": "address",
          "name": "_token0",
          "type": "address"
        },
        {
          "internalType": "address",
          "name": "_token1",
          "type": "address"
        },
        {
          "internalType": "address",
          "name": "usd",
          "type": "address"
        },
        {
          "internalType": "address",
          "name": "router",
          "type": "address"
        },
        {
          "internalType": "address",
          "name": "masterChef",
          "type": "address"
        },
        {
          "internalType": "address",
          "name": "pair",
          "type": "address"
        }
      ],
      "name": "setAll",
      "outputs": [],
      "stateMutability": "nonpayable",
      "type": "function"
    },
    {
      "inputs": [
        {
          "internalType": "address",
          "name": "_newBeneficiary",
          "type": "address"
        }
      ],
      "name": "setBeneficiary",
      "outputs": [],
      "stateMutability": "nonpayable",
      "type": "function"
    },
    {
      "inputs": [
        {
          "internalType": "uint256",
          "name": "_newFeePercent",
          "type": "uint256"
        }
      ],
      "name": "setFeePercent",
      "outputs": [],
      "stateMutability": "nonpayable",
      "type": "function"
    },
    {
      "inputs": [
        {
          "internalType": "address",
          "name": "_address",
          "type": "address"
        }
      ],
      "name": "setFrogReferalAddress",
      "outputs": [],
      "stateMutability": "nonpayable",
      "type": "function"
    },
    {
      "inputs": [
        {
          "internalType": "uint256",
          "name": "_maxUsd",
          "type": "uint256"
        }
      ],
      "name": "setMaxUsd",
      "outputs": [],
      "stateMutability": "nonpayable",
      "type": "function"
    },
    {
      "inputs": [
        {
          "internalType": "uint256",
          "name": "_minUsd",
          "type": "uint256"
        }
      ],
      "name": "setMinUsd",
      "outputs": [],
      "stateMutability": "nonpayable",
      "type": "function"
    },
    {
      "inputs": [
        {
          "internalType": "address",
          "name": "_address",
          "type": "address"
        }
      ],
      "name": "setPancakeMCAddress",
      "outputs": [],
      "stateMutability": "nonpayable",
      "type": "function"
    },
    {
      "inputs": [
        {
          "internalType": "address",
          "name": "_address",
          "type": "address"
        }
      ],
      "name": "setPancakePairAddress",
      "outputs": [],
      "stateMutability": "nonpayable",
      "type": "function"
    },
    {
      "inputs": [
        {
          "internalType": "address",
          "name": "_address",
          "type": "address"
        }
      ],
      "name": "setPancakeRouterAddress",
      "outputs": [],
      "stateMutability": "nonpayable",
      "type": "function"
    },
    {
      "inputs": [
        {
          "internalType": "address",
          "name": "_cakeContractAddress",
          "type": "address"
        }
      ],
      "name": "setToken0ContractAddress",
      "outputs": [],
      "stateMutability": "nonpayable",
      "type": "function"
    },
    {
      "inputs": [
        {
          "internalType": "address",
          "name": "_address",
          "type": "address"
        }
      ],
      "name": "setToken1ContractAddress",
      "outputs": [],
      "stateMutability": "nonpayable",
      "type": "function"
    },
    {
      "inputs": [
        {
          "internalType": "address",
          "name": "_address",
          "type": "address"
        }
      ],
      "name": "setUsdContractAddress",
      "outputs": [],
      "stateMutability": "nonpayable",
      "type": "function"
    },
    {
      "inputs": [],
      "name": "token0",
      "outputs": [
        {
          "internalType": "address",
          "name": "",
          "type": "address"
        }
      ],
      "stateMutability": "view",
      "type": "function"
    },
    {
      "inputs": [],
      "name": "token1",
      "outputs": [
        {
          "internalType": "address",
          "name": "",
          "type": "address"
        }
      ],
      "stateMutability": "view",
      "type": "function"
    },
    {
      "inputs": [
        {
          "internalType": "address",
          "name": "newOwner",
          "type": "address"
        }
      ],
      "name": "transferOwnership",
      "outputs": [],
      "stateMutability": "nonpayable",
      "type": "function"
    },
    {
      "inputs": [
        {
          "internalType": "uint256",
          "name": "_amount",
          "type": "uint256"
        }
      ],
      "name": "withdraw",
      "outputs": [
        {
          "internalType": "bool",
          "name": "success",
          "type": "bool"
        }
      ],
      "stateMutability": "nonpayable",
      "type": "function"
    },
    {
      "inputs": [
        {
          "internalType": "address",
          "name": "",
          "type": "address"
        }
      ],
      "name": "withdrawOf",
      "outputs": [
        {
          "internalType": "uint256",
          "name": "",
          "type": "uint256"
        }
      ],
      "stateMutability": "view",
      "type": "function"
    },
    {
      "stateMutability": "payable",
      "type": "receive"
    }
  ],
  "bytecode": "0x608060405260006001556127106002556402540be4006018553480156200002557600080fd5b506040516200471438038062004714833981016040819052620000489162000513565b6200005c6200005662000157565b6200015b565b600b80546001600160a01b0319166001600160a01b038416179055610bb8601581905560145567016345785d8a000060125568056bc75e2d63100000601355600a8190556017805460ff1916841515179055620000b986620001ab565b620000c48562000229565b620000e37355d398326f99059ff775485246999027b31979556200029e565b620001027310ed43c718714eb63d5aa57b78b54704e256024e62000313565b6200012173a5f8c5dbd5f286960b9d90548680ae5ebff0765262000388565b62000140730ed7e52944161450477ee417de9cd3a859b14fd0620003fd565b6200014b8462000472565b505050505050620005d1565b3390565b600080546001600160a01b038381166001600160a01b0319831681178455604051919092169283917f8be0079c531659141344cd1fd0a4f28419497f9722a3daafe3b4186f6b6457e09190a35050565b620001b5620004e7565b6001600160a01b0316336001600160a01b03161480620001df5750600b546001600160a01b031633145b620002075760405162461bcd60e51b8152600401620001fe906200058f565b60405180910390fd5b600380546001600160a01b0319166001600160a01b0392909216919091179055565b62000233620004e7565b6001600160a01b0316336001600160a01b031614806200025d5750600b546001600160a01b031633145b6200027c5760405162461bcd60e51b8152600401620001fe906200058f565b600480546001600160a01b0319166001600160a01b0392909216919091179055565b620002a8620004e7565b6001600160a01b0316336001600160a01b03161480620002d25750600b546001600160a01b031633145b620002f15760405162461bcd60e51b8152600401620001fe906200058f565b600580546001600160a01b0319166001600160a01b0392909216919091179055565b6200031d620004e7565b6001600160a01b0316336001600160a01b03161480620003475750600b546001600160a01b031633145b620003665760405162461bcd60e51b8152600401620001fe906200058f565b600680546001600160a01b0319166001600160a01b0392909216919091179055565b62000392620004e7565b6001600160a01b0316336001600160a01b03161480620003bc5750600b546001600160a01b031633145b620003db5760405162461bcd60e51b8152600401620001fe906200058f565b600780546001600160a01b0319166001600160a01b0392909216919091179055565b62000407620004e7565b6001600160a01b0316336001600160a01b03161480620004315750600b546001600160a01b031633145b620004505760405162461bcd60e51b8152600401620001fe906200058f565b600880546001600160a01b0319166001600160a01b0392909216919091179055565b6200047c620004e7565b6001600160a01b0316336001600160a01b03161480620004a65750600b546001600160a01b031633145b620004c55760405162461bcd60e51b8152600401620001fe906200058f565b600980546001600160a01b0319166001600160a01b0392909216919091179055565b6000546001600160a01b031690565b80516001600160a01b03811681146200050e57600080fd5b919050565b60008060008060008060c087890312156200052c578182fd5b6200053787620004f6565b95506200054760208801620004f6565b94506200055760408801620004f6565b9350606087015180151581146200056c578283fd5b92506200057c60808801620004f6565b915060a087015190509295509295509295565b60208082526022908201527f43616c6c6572206973206e6f742062656e6566696369617279206f72206f776e60408201526132b960f11b606082015260800190565b61413380620005e16000396000f3fe6080604052600436106102a45760003560e01c806370a082311161016e578063cb0a14eb116100cb578063e2bbb1581161007f578063f2fde38b11610064578063f2fde38b146106ca578063f914958b146106ea578063fd0b2fec1461070a576102ab565b8063e2bbb15814610697578063eedbc056146106aa576102ab565b8063d736f8a6116100b0578063d736f8a614610642578063d80ffb2014610662578063dde7cd5114610677576102ab565b8063cb0a14eb1461060d578063d21220a71461062d576102ab565b80638da5cb5b11610122578063b88a802f11610107578063b88a802f146105b8578063bf4f0004146105cd578063c0cb7c6a146105ed576102ab565b80638da5cb5b14610583578063929066f514610598576102ab565b80637a6620d1116101535780637a6620d11461052e5780637ce3489b1461054e578063851ed85e1461056e576102ab565b806370a08231146104f9578063715018a614610519576102ab565b806323ce7fb81161021c57806335c1d349116101d0578063457aa181116101b5578063457aa181146104a157806351b80e41146104c15780635aa68ac0146104d6576102ab565b806335c1d3491461046c57806338af3eed1461048c576102ab565b8063295f39b111610201578063295f39b1146104095780632c6f6ee01461042c5780632e1a7d4d1461044c576102ab565b806323ce7fb8146103c957806323e3fbd5146103e9576102ab565b80631c31f710116102735780631d62ebd9116102585780631d62ebd9146103745780631d6ca518146103945780631dc21194146103b4576102ab565b80631c31f710146103345780631c3b390214610354576102ab565b80630859ea96146102b05780630dfe1681146102d95780630eecae21146102fb578063158f3fe814610312576102ab565b366102ab57005b600080fd5b6102c36102be366004613670565b61072a565b6040516102d09190613a66565b60405180910390f35b3480156102e557600080fd5b506102ee610842565b6040516102d091906138ac565b34801561030757600080fd5b50610310610851565b005b34801561031e57600080fd5b50610327610d47565b6040516102d09190613f3f565b34801561034057600080fd5b5061031061034f36600461345c565b610d4d565b34801561036057600080fd5b5061031061036f36600461345c565b610df6565b34801561038057600080fd5b5061032761038f36600461345c565b610e65565b3480156103a057600080fd5b506103106103af36600461375f565b610e77565b3480156103c057600080fd5b50610327610ec9565b3480156103d557600080fd5b506103106103e436600461345c565b610f6c565b3480156103f557600080fd5b5061032761040436600461345c565b610fdb565b34801561041557600080fd5b5061041e610fed565b6040516102d0929190613f80565b34801561043857600080fd5b506103106104473660046134f9565b611165565b34801561045857600080fd5b506102c361046736600461375f565b6113e7565b34801561047857600080fd5b506102ee61048736600461375f565b611574565b34801561049857600080fd5b506102ee61159e565b3480156104ad57600080fd5b506103106104bc36600461375f565b6115ad565b3480156104cd57600080fd5b506103276115ff565b3480156104e257600080fd5b506104eb611605565b6040516102d09291906139db565b34801561050557600080fd5b5061032761051436600461345c565b61175f565b34801561052557600080fd5b50610310611771565b34801561053a57600080fd5b5061031061054936600461345c565b611785565b34801561055a57600080fd5b5061031061056936600461375f565b6117f4565b34801561057a57600080fd5b50610327611897565b34801561058f57600080fd5b506102ee61189d565b3480156105a457600080fd5b506102c36105b336600461345c565b6118ac565b3480156105c457600080fd5b506103106118ca565b3480156105d957600080fd5b506103106105e836600461345c565b611a8e565b3480156105f957600080fd5b5061032761060836600461345c565b611afd565b34801561061957600080fd5b5061031061062836600461345c565b611b0f565b34801561063957600080fd5b506102ee611b7e565b34801561064e57600080fd5b5061031061065d366004613478565b611b8d565b34801561066e57600080fd5b50610327611c48565b34801561068357600080fd5b506102c361069236600461345c565b611c4e565b6102c36106a53660046137c5565b611c63565b3480156106b657600080fd5b506103106106c536600461345c565b611f56565b3480156106d657600080fd5b506103106106e536600461345c565b611fc5565b3480156106f657600080fd5b5061032761070536600461378f565b611fff565b34801561071657600080fd5b5061031061072536600461345c565b612198565b6009546040517f94dbed5a0000000000000000000000000000000000000000000000000000000081526000916001600160a01b0316906394dbed5a9061077c908b908b908b908b908b90600401613a71565b602060405180830381600087803b15801561079657600080fd5b505af11580156107aa573d6000803e3d6000fd5b505050506040513d601f19601f820116820180604052508101906107ce9190613650565b6107f35760405162461bcd60e51b81526004016107ea90613bbc565b60405180910390fd5b6000610801888a018a61345c565b90506001600160a01b038116331461082b5760405162461bcd60e51b81526004016107ea90613b28565b6108358484611c63565b9998505050505050505050565b6003546001600160a01b031681565b61085961189d565b6001600160a01b0316336001600160a01b031614806108825750600b546001600160a01b031633145b61089e5760405162461bcd60e51b81526004016107ea90613cbe565b600754600a546040517fe2bbb1580000000000000000000000000000000000000000000000000000000081526001600160a01b039092169163e2bbb158916108eb91600090600401613f80565b600060405180830381600087803b15801561090557600080fd5b505af1158015610919573d6000803e3d6000fd5b50506016546003546040516370a0823160e01b8152600094509192506001600160a01b0316906370a08231906109539030906004016138ac565b60206040518083038186803b15801561096b57600080fd5b505afa15801561097f573d6000803e3d6000fd5b505050506040513d601f19601f820116820180604052508101906109a39190613777565b6109ad9190614049565b60105490915060009067ffffffffffffffff8111156109dc57634e487b7160e01b600052604160045260246000fd5b604051908082528060200260200182016040528015610a05578160200160208202803683370190505b509050600060606000610a16611605565b90945092508215610d38576000612710601454612710610a369190614049565b610a40908861402a565b610a4a9190614016565b90506000610a59609686614016565b610a64906001613ffe565b90508067ffffffffffffffff811115610a8d57634e487b7160e01b600052604160045260246000fd5b604051908082528060200260200182016040528015610ab6578160200160208202803683370190505b509350610ac38582612207565b935060005b81811015610b6a576000858281518110610af257634e487b7160e01b600052603260045260246000fd5b60200260200101519050600d6000898381518110610b2057634e487b7160e01b600052603260045260246000fd5b60200260200101516001600160a01b03166001600160a01b031681526020019081526020016000205485610b549190613ffe565b9450508080610b6290614077565b915050610ac8565b5060018054906000610b7b83614077565b9091555060009050805b82811015610ceb57600088878381518110610bb057634e487b7160e01b600052603260045260246000fd5b602002602001015181518110610bd657634e487b7160e01b600052603260045260246000fd5b60200260200101519050600086600d6000846001600160a01b03166001600160a01b03168152602001908152602001600020546064610c15919061402a565b610c1f9190614016565b905060006064610c2f838961402a565b610c399190614016565b6001600160a01b0384166000908152600f6020526040812080549293508392909190610c66908490613ffe565b925050819055508060166000828254610c7f9190613ffe565b90915550610c8f90508186613ffe565b9450826001600160a01b03166001547f9515c6f2bffb313099bcee0fbec701e0d75b3e20ca6032804286cb49bb4af2b483604051610ccd9190613f3f565b60405180910390a35050508080610ce390614077565b915050610b85565b506001547f79c638881fbfa6a03de3e6af82cf35831eec3d7db9c452bd99e844ae639aa67b8983604051610d20929190613f80565b60405180910390a2610d30612375565b505050610d40565b610d40612375565b5050505050565b60135481565b610d5561189d565b6001600160a01b0316336001600160a01b03161480610d7e5750600b546001600160a01b031633145b610d9a5760405162461bcd60e51b81526004016107ea90613cbe565b600b546040516001600160a01b038084169216907f768099735d1c322a05a5b9d7b76d99682a1833d3f7055e5ede25e0f2eeaa8c6d90600090a3600b80546001600160a01b0319166001600160a01b0392909216919091179055565b610dfe61189d565b6001600160a01b0316336001600160a01b03161480610e275750600b546001600160a01b031633145b610e435760405162461bcd60e51b81526004016107ea90613cbe565b600980546001600160a01b0319166001600160a01b0392909216919091179055565b600f6020526000908152604090205481565b610e7f61189d565b6001600160a01b0316336001600160a01b03161480610ea85750600b546001600160a01b031633145b610ec45760405162461bcd60e51b81526004016107ea90613cbe565b601355565b600754600a546040517f1175a1dd0000000000000000000000000000000000000000000000000000000081526000926001600160a01b031691631175a1dd91610f1791903090600401613f48565b60206040518083038186803b158015610f2f57600080fd5b505afa158015610f43573d6000803e3d6000fd5b505050506040513d601f19601f82011682018060405250810190610f679190613777565b905090565b610f7461189d565b6001600160a01b0316336001600160a01b03161480610f9d5750600b546001600160a01b031633145b610fb95760405162461bcd60e51b81526004016107ea90613cbe565b600780546001600160a01b0319166001600160a01b0392909216919091179055565b600c6020526000908152604090205481565b600080600080600860009054906101000a90046001600160a01b03166001600160a01b0316630902f1ac6040518163ffffffff1660e01b815260040160606040518083038186803b15801561104157600080fd5b505afa158015611055573d6000803e3d6000fd5b505050506040513d601f19601f820116820180604052508101906110799190613711565b50915091506000600860009054906101000a90046001600160a01b03166001600160a01b03166318160ddd6040518163ffffffff1660e01b815260040160206040518083038186803b1580156110ce57600080fd5b505afa1580156110e2573d6000803e3d6000fd5b505050506040513d601f19601f820116820180604052508101906111069190613777565b905080600254846dffffffffffffffffffffffffffff16611127919061402a565b6111319190614016565b945080600254836dffffffffffffffffffffffffffff16611152919061402a565b61115c9190614016565b93505050509091565b61116d61189d565b6001600160a01b0316336001600160a01b031614806111965750600b546001600160a01b031633145b6111b25760405162461bcd60e51b81526004016107ea90613cbe565b6016546003546040516370a0823160e01b8152600092916001600160a01b0316906370a08231906111e79030906004016138ac565b60206040518083038186803b1580156111ff57600080fd5b505afa158015611213573d6000803e3d6000fd5b505050506040513d601f19601f820116820180604052508101906112379190613777565b6112419190614049565b6009546003546040517ff82df42e0000000000000000000000000000000000000000000000000000000081529293506001600160a01b039182169263f82df42e926112939288929116906004016139fd565b600060405180830381600087803b1580156112ad57600080fd5b505af11580156112c1573d6000803e3d6000fd5b505060035460095460405163a9059cbb60e01b81526001600160a01b03928316945063a9059cbb93506112fc92909116908690600401613987565b602060405180830381600087803b15801561131657600080fd5b505af115801561132a573d6000803e3d6000fd5b505050506040513d601f19601f8201168201806040525081019061134e9190613650565b50600354600b546001600160a01b039182169163a9059cbb91166113728585614049565b6040518363ffffffff1660e01b815260040161138f929190613987565b602060405180830381600087803b1580156113a957600080fd5b505af11580156113bd573d6000803e3d6000fd5b505050506040513d601f19601f820116820180604052508101906113e19190613650565b50505050565b336000908152600e6020908152604080832054600c835281842054600d90935290832054849261141691613ffe565b6114209190614049565b101561143e5760405162461bcd60e51b81526004016107ea90613d1b565b600080611449610fed565b60025460045460055493955091935060009290916114759185916001600160a01b039081169116611fff565b6003546005546114939187916001600160a01b039182169116611fff565b61149d9190613ffe565b336000908152600e6020908152604080832054600c835281842054600d9093529220548992916114cc91613ffe565b6114d69190614049565b6114e09190614049565b6114ea919061402a565b6114f49190614016565b905080158061150557506012548110155b6115215760405162461bcd60e51b81526004016107ea90613e2c565b6013548111156115435760405162461bcd60e51b81526004016107ea90613dbe565b336000908152600e602052604081208054879290611562908490613ffe565b9091555060019450505050505b919050565b6010818154811061158457600080fd5b6000918252602090912001546001600160a01b0316905081565b600b546001600160a01b031681565b6115b561189d565b6001600160a01b0316336001600160a01b031614806115de5750600b546001600160a01b031633145b6115fa5760405162461bcd60e51b81526004016107ea90613cbe565b601255565b60125481565b60105460609060009067ffffffffffffffff81111561163457634e487b7160e01b600052604160045260246000fd5b60405190808252806020026020018201604052801561165d578160200160208202803683370190505b5091506000905060005b60105481101561175a576000600d60006010848154811061169857634e487b7160e01b600052603260045260246000fd5b60009182526020808320909101546001600160a01b03168352820192909252604001902054111561174857601081815481106116e457634e487b7160e01b600052603260045260246000fd5b9060005260206000200160009054906101000a90046001600160a01b031683838151811061172257634e487b7160e01b600052603260045260246000fd5b6001600160a01b03909216602092830291909101909101528161174481614077565b9250505b8061175281614077565b915050611667565b509091565b600d6020526000908152604090205481565b611779612a68565b6117836000612aa7565b565b61178d61189d565b6001600160a01b0316336001600160a01b031614806117b65750600b546001600160a01b031633145b6117d25760405162461bcd60e51b81526004016107ea90613cbe565b600380546001600160a01b0319166001600160a01b0392909216919091179055565b6117fc61189d565b6001600160a01b0316336001600160a01b031614806118255750600b546001600160a01b031633145b6118415760405162461bcd60e51b81526004016107ea90613cbe565b6015548111156118635760405162461bcd60e51b81526004016107ea90613b5f565b6014546040518291907f44cb215a0ee4011e0802aea4220545b8f823c5041bb303a4ae1219f99f91e65b90600090a3601455565b60025481565b6000546001600160a01b031690565b6001600160a01b031660009081526011602052604090205460ff1690565b336000908152600f60205260409020546118f65760405162461bcd60e51b81526004016107ea90613d87565b336000908152600f6020526040908190205460035491516370a0823160e01b815290916001600160a01b0316906370a08231906119379030906004016138ac565b60206040518083038186803b15801561194f57600080fd5b505afa158015611963573d6000803e3d6000fd5b505050506040513d601f19601f820116820180604052508101906119879190613777565b10156119a55760405162461bcd60e51b81526004016107ea90613aba565b600354336000818152600f60205260409081902054905163a9059cbb60e01b81526001600160a01b039093169263a9059cbb926119e6929091600401613987565b602060405180830381600087803b158015611a0057600080fd5b505af1158015611a14573d6000803e3d6000fd5b505050506040513d601f19601f82011682018060405250810190611a389190613650565b611a545760405162461bcd60e51b81526004016107ea90613ed1565b336000908152600f60205260408120546016805491929091611a77908490614049565b9091555050336000908152600f6020526040812055565b611a9661189d565b6001600160a01b0316336001600160a01b03161480611abf5750600b546001600160a01b031633145b611adb5760405162461bcd60e51b81526004016107ea90613cbe565b600580546001600160a01b0319166001600160a01b0392909216919091179055565b600e6020526000908152604090205481565b611b1761189d565b6001600160a01b0316336001600160a01b03161480611b405750600b546001600160a01b031633145b611b5c5760405162461bcd60e51b81526004016107ea90613cbe565b600480546001600160a01b0319166001600160a01b0392909216919091179055565b6004546001600160a01b031681565b611b9561189d565b6001600160a01b0316336001600160a01b03161480611bbe5750600b546001600160a01b031633145b611bda5760405162461bcd60e51b81526004016107ea90613cbe565b600380546001600160a01b03199081166001600160a01b03988916179091556004805482169688169690961790955560068054861693871693909317909255600780548516918616919091179055600880548416918516919091179055600580549092169216919091179055565b60015481565b60116020526000908152604090205460ff1681565b60175460009060ff1615611c9557348214611c905760405162461bcd60e51b81526004016107ea90613c50565b611dee565b600480546040516370a0823160e01b815284926001600160a01b03909216916370a0823191611cc6913391016138ac565b60206040518083038186803b158015611cde57600080fd5b505afa158015611cf2573d6000803e3d6000fd5b505050506040513d601f19601f82011682018060405250810190611d169190613777565b1015611d345760405162461bcd60e51b81526004016107ea90613e63565b600480546040517fdd62ed3e00000000000000000000000000000000000000000000000000000000815284926001600160a01b039092169163dd62ed3e91611d809133913091016138c0565b60206040518083038186803b158015611d9857600080fd5b505afa158015611dac573d6000803e3d6000fd5b505050506040513d601f19601f82011682018060405250810190611dd09190613777565b1015611dee5760405162461bcd60e51b81526004016107ea90613af1565b6003546040516370a0823160e01b815284916001600160a01b0316906370a0823190611e1e9033906004016138ac565b60206040518083038186803b158015611e3657600080fd5b505afa158015611e4a573d6000803e3d6000fd5b505050506040513d601f19601f82011682018060405250810190611e6e9190613777565b1015611e8c5760405162461bcd60e51b81526004016107ea90613c87565b6003546040517fdd62ed3e00000000000000000000000000000000000000000000000000000000815284916001600160a01b03169063dd62ed3e90611ed790339030906004016138c0565b60206040518083038186803b158015611eef57600080fd5b505afa158015611f03573d6000803e3d6000fd5b505050506040513d601f19601f82011682018060405250810190611f279190613777565b1015611f455760405162461bcd60e51b81526004016107ea90613df5565b611f4f8383612af7565b9392505050565b611f5e61189d565b6001600160a01b0316336001600160a01b03161480611f875750600b546001600160a01b031633145b611fa35760405162461bcd60e51b81526004016107ea90613cbe565b600680546001600160a01b0319166001600160a01b0392909216919091179055565b611fcd612a68565b6001600160a01b038116611ff35760405162461bcd60e51b81526004016107ea90613bf3565b611ffc81612aa7565b50565b6040805160028082526060808301845260009390929190602083019080368337019050509050838160008151811061204757634e487b7160e01b600052603260045260246000fd5b60200260200101906001600160a01b031690816001600160a01b031681525050828160018151811061208957634e487b7160e01b600052603260045260246000fd5b6001600160a01b039290921660209283029190910190910152604080516002808252606082810190935281602001602082028036833750506006546040517fd06ca61f0000000000000000000000000000000000000000000000000000000081529293506001600160a01b03169163d06ca61f915061210e9089908690600401613f5f565b60006040518083038186803b15801561212657600080fd5b505afa15801561213a573d6000803e3d6000fd5b505050506040513d6000823e601f3d908101601f1916820160405261216291908101906135c0565b90508060018151811061218557634e487b7160e01b600052603260045260246000fd5b6020026020010151925050509392505050565b6121a061189d565b6001600160a01b0316336001600160a01b031614806121c95750600b546001600160a01b031633145b6121e55760405162461bcd60e51b81526004016107ea90613cbe565b600880546001600160a01b0319166001600160a01b0392909216919091179055565b606060008267ffffffffffffffff81111561223257634e487b7160e01b600052604160045260246000fd5b60405190808252806020026020018201604052801561225b578160200160208202803683370190505b5091505b8281101561231857600061227285613347565b61227d906001613ffe565b90506000805b858110156122d157828582815181106122ac57634e487b7160e01b600052603260045260246000fd5b602002602001015114156122bf57600191505b806122c981614077565b915050612283565b508061231157818484815181106122f857634e487b7160e01b600052603260045260246000fd5b60209081029190910101528261230d81614077565b9350505b505061225f565b60005b8381101561236d5782818151811061234357634e487b7160e01b600052603260045260246000fd5b60200260200101805180919061235890614060565b9052508061236581614077565b91505061231b565b505092915050565b60005b601054811015611ffc576000601082815481106123a557634e487b7160e01b600052603260045260246000fd5b60009182526020808320909101546001600160a01b0316808352600c90915260409091205490915015612425576001600160a01b0381166000908152600c6020908152604080832054600d9092528220805491929091612406908490613ffe565b90915550506001600160a01b0381166000908152600c60205260408120555b6001600160a01b0381166000908152600e60205260409020541580159061246f57506001600160a01b0381166000908152600d6020908152604080832054600e9092529091205411155b15612a55576001600160a01b0381166000908152600e6020908152604080832054600d90925282208054919290916124a8908490614049565b9091555050600754600a546001600160a01b038381166000908152600e6020526040908190205490517f441a3e70000000000000000000000000000000000000000000000000000000008152919093169263441a3e709261250e92909190600401613f80565b600060405180830381600087803b15801561252857600080fd5b505af115801561253c573d6000803e3d6000fd5b50506008546006546001600160a01b038581166000908152600e60205260409081902054905163095ea7b360e01b8152938216955063095ea7b39450612589939290911691600401613987565b602060405180830381600087803b1580156125a357600080fd5b505af11580156125b7573d6000803e3d6000fd5b505050506040513d601f19601f820116820180604052508101906125db9190613650565b506000806125e7610fed565b601754919350915060ff16156127f6576006546003546001600160a01b038581166000908152600e602052604081205460025491948594908416936302751cec9391169190612710612639838b61402a565b6126439190614016565b61264f906126ac61402a565b6126599190614016565b6002546001600160a01b038b166000908152600e602052604090205461271090612683908b61402a565b61268d9190614016565b612699906126ac61402a565b6126a39190614016565b306126b0426104b0613ffe565b6040518763ffffffff1660e01b81526004016126d1969594939291906139a0565b6040805180830381600087803b1580156126ea57600080fd5b505af11580156126fe573d6000803e3d6000fd5b505050506040513d601f19601f8201168201806040525081019061272291906137e6565b60035460405163a9059cbb60e01b81529294509092506001600160a01b03169063a9059cbb906127589088908690600401613987565b602060405180830381600087803b15801561277257600080fd5b505af1158015612786573d6000803e3d6000fd5b505050506040513d601f19601f820116820180604052508101906127aa9190613650565b50846001600160a01b03166108fc601854836127c69190614016565b6040518115909202916000818181858888f193505050501580156127ee573d6000803e3d6000fd5b505050612a39565b6006546003546004546001600160a01b038681166000908152600e6020526040812054600254919586959084169463baa2abde94918216939116919061271061283f838c61402a565b6128499190614016565b612855906126ac61402a565b61285f9190614016565b6002546001600160a01b038c166000908152600e602052604090205461271090612889908c61402a565b6128939190614016565b61289f906126ac61402a565b6128a99190614016565b306128b6426104b0613ffe565b6040518863ffffffff1660e01b81526004016128d897969594939291906138fe565b6040805180830381600087803b1580156128f157600080fd5b505af1158015612905573d6000803e3d6000fd5b505050506040513d601f19601f8201168201806040525081019061292991906137e6565b60035460405163a9059cbb60e01b81529294509092506001600160a01b03169063a9059cbb9061295f9088908690600401613987565b602060405180830381600087803b15801561297957600080fd5b505af115801561298d573d6000803e3d6000fd5b505050506040513d601f19601f820116820180604052508101906129b19190613650565b506004805460405163a9059cbb60e01b81526001600160a01b039091169163a9059cbb916129e3918991869101613987565b602060405180830381600087803b1580156129fd57600080fd5b505af1158015612a11573d6000803e3d6000fd5b505050506040513d601f19601f82011682018060405250810190612a359190613650565b5050505b50506001600160a01b0381166000908152600e60205260408120555b5080612a6081614077565b915050612378565b612a70613358565b6001600160a01b0316612a8161189d565b6001600160a01b0316146117835760405162461bcd60e51b81526004016107ea90613d52565b600080546001600160a01b038381166001600160a01b0319831681178455604051919092169283917f8be0079c531659141344cd1fd0a4f28419497f9722a3daafe3b4186f6b6457e09190a35050565b6009546040517fdde7cd510000000000000000000000000000000000000000000000000000000081526000916001600160a01b03169063dde7cd5190612b419033906004016138ac565b60206040518083038186803b158015612b5957600080fd5b505afa158015612b6d573d6000803e3d6000fd5b505050506040513d601f19601f82011682018060405250810190612b919190613650565b612bad5760405162461bcd60e51b81526004016107ea90613e9a565b600080612bb8610fed565b6002546004546005549395509193506000929091612be49185916001600160a01b039081169116611fff565b600354600554612c029187916001600160a01b039182169116611fff565b612c0c9190613ffe565b336000908152600e6020908152604080832054600c835281842054600d909352922054612c399190613ffe565b612c439190614049565b612c4d919061402a565b612c579190614016565b600454600554919250600091612c7b9188916001600160a01b039182169116611fff565b600354600554612c99918a916001600160a01b039182169116611fff565b612ca39190613ffe565b9050612cb5828260125460135461335c565b601254612cc28284613ffe565b1015612ce05760405162461bcd60e51b81526004016107ea90613e2c565b601354612ced8284613ffe565b1115612d0b5760405162461bcd60e51b81526004016107ea90613dbe565b6003546040517f23b872dd0000000000000000000000000000000000000000000000000000000081526000916001600160a01b0316906323b872dd90612d5990339030908d906004016138da565b602060405180830381600087803b158015612d7357600080fd5b505af1158015612d87573d6000803e3d6000fd5b505050506040513d601f19601f82011682018060405250810190612dab9190613650565b905080612dca5760405162461bcd60e51b81526004016107ea90613f08565b60035460065460405163095ea7b360e01b81526000926001600160a01b039081169263095ea7b392612e0492909116908d90600401613987565b602060405180830381600087803b158015612e1e57600080fd5b505af1158015612e32573d6000803e3d6000fd5b505050506040513d601f19601f82011682018060405250810190612e569190613650565b5060175460ff1615612f38576006546003546001600160a01b039182169163f305d719918b91168c612e8a61271082614016565b612e96906126ac61402a565b612ea26127108f614016565b612eae906126ac61402a565b30612ebb426104b0613ffe565b6040518863ffffffff1660e01b8152600401612edc969594939291906139a0565b6060604051808303818588803b158015612ef557600080fd5b505af1158015612f09573d6000803e3d6000fd5b50505050506040513d601f19601f82011682018060405250810190612f2e9190613809565b925061315f915050565b600480546040517f23b872dd0000000000000000000000000000000000000000000000000000000081526001600160a01b03909116916323b872dd91612f8491339130918e91016138da565b602060405180830381600087803b158015612f9e57600080fd5b505af1158015612fb2573d6000803e3d6000fd5b505050506040513d601f19601f82011682018060405250810190612fd69190613650565b612ff25760405162461bcd60e51b81526004016107ea90613f08565b6004805460065460405163095ea7b360e01b81526001600160a01b039283169363095ea7b3936130269316918d9101613987565b602060405180830381600087803b15801561304057600080fd5b505af1158015613054573d6000803e3d6000fd5b505050506040513d601f19601f820116820180604052508101906130789190613650565b5060006130876127108b614016565b613093906126ac61402a565b905060006130a36127108b614016565b6130af906126ac61402a565b6006546003546004549293506001600160a01b039182169263e8e337009291821691168e8e8787306130e3426104b0613ffe565b6040518963ffffffff1660e01b815260040161310698979695949392919061393e565b606060405180830381600087803b15801561312057600080fd5b505af1158015613134573d6000803e3d6000fd5b505050506040513d601f19601f820116820180604052508101906131589190613809565b9450505050505b60085460075460405163095ea7b360e01b81526001600160a01b039283169263095ea7b392613195929116908590600401613987565b602060405180830381600087803b1580156131af57600080fd5b505af11580156131c3573d6000803e3d6000fd5b505050506040513d601f19601f820116820180604052508101906131e79190613650565b50600754600a546040517fe2bbb1580000000000000000000000000000000000000000000000000000000081526001600160a01b039092169163e2bbb15891613234918590600401613f80565b600060405180830381600087803b15801561324e57600080fd5b505af1158015613262573d6000803e3d6000fd5b5050336000908152600c602052604081208054859450909250613286908490613ffe565b909155506132959050336118ac565b613338573360008181526011602052604080822080547fffffffffffffffffffffffffffffffffffffffffffffffffffffffffffffff0016600190811790915560108054918201815583527f1b6847dc741a1b0cd08d278845f9d819d87b734759afb55fe2de5cb82a9ae6720180546001600160a01b03191684179055517f79229b212fa3ea547fb5e5b66090cf250d442b12a51854a030f3b796d528134e9190a25b50600198975050505050505050565b6000613352826133d3565b92915050565b3390565b6113e1848484846040516024016133769493929190613f8e565b60408051601f198184030181529190526020810180517bffffffffffffffffffffffffffffffffffffffffffffffffffffffff167f193fb8000000000000000000000000000000000000000000000000000000000017905261340c565b60008142336040516020016133e9929190613879565b6040516020818303038152906040528051906020012060001c6133529190614092565b80516a636f6e736f6c652e6c6f67602083016000808483855afa5050505050565b80516dffffffffffffffffffffffffffff8116811461156f57600080fd5b803560ff8116811461156f57600080fd5b60006020828403121561346d578081fd5b8135611f4f816140e8565b60008060008060008060c08789031215613490578182fd5b863561349b816140e8565b955060208701356134ab816140e8565b945060408701356134bb816140e8565b935060608701356134cb816140e8565b925060808701356134db816140e8565b915060a08701356134eb816140e8565b809150509295509295509295565b600080604080848603121561350c578283fd5b833567ffffffffffffffff811115613522578384fd5b8401601f81018613613532578384fd5b8035602061354761354283613fda565b613fa9565b82815281810190848301868502860184018b1015613563578889fd5b8895505b848610156135af5786818c03121561357d578889fd5b61358687613fa9565b8135613591816140e8565b81528185013585820152835260019590950194918301918601613567565b509997909101359750505050505050565b600060208083850312156135d2578182fd5b825167ffffffffffffffff8111156135e8578283fd5b8301601f810185136135f8578283fd5b805161360661354282613fda565b8181528381019083850185840285018601891015613622578687fd5b8694505b83851015613644578051835260019490940193918501918501613626565b50979650505050505050565b600060208284031215613661578081fd5b81518015158114611f4f578182fd5b600080600080600080600060c0888a03121561368a578081fd5b873567ffffffffffffffff808211156136a1578283fd5b818a0191508a601f8301126136b4578283fd5b8135818111156136c2578384fd5b8b60208285010111156136d3578384fd5b6020928301995097506136e9918a01905061344b565b96999598509596604081013596506060810135956080820135955060a0909101359350915050565b600080600060608486031215613725578283fd5b61372e8461342d565b925061373c6020850161342d565b9150604084015163ffffffff81168114613754578182fd5b809150509250925092565b600060208284031215613770578081fd5b5035919050565b600060208284031215613788578081fd5b5051919050565b6000806000606084860312156137a3578081fd5b8335925060208401356137b5816140e8565b91506040840135613754816140e8565b600080604083850312156137d7578182fd5b50508035926020909101359150565b600080604083850312156137f8578182fd5b505080516020909101519092909150565b60008060006060848603121561381d578081fd5b8351925060208401519150604084015190509250925092565b6000815180845260208085019450808401835b8381101561386e5781516001600160a01b031687529582019590820190600101613849565b509495945050505050565b91825260601b7fffffffffffffffffffffffffffffffffffffffff00000000000000000000000016602082015260340190565b6001600160a01b0391909116815260200190565b6001600160a01b0392831681529116602082015260400190565b6001600160a01b039384168152919092166020820152604081019190915260600190565b6001600160a01b039788168152958716602087015260408601949094526060850192909252608084015290921660a082015260c081019190915260e00190565b6001600160a01b039889168152968816602088015260408701959095526060860193909352608085019190915260a084015290921660c082015260e08101919091526101000190565b6001600160a01b03929092168252602082015260400190565b6001600160a01b039687168152602081019590955260408501939093526060840191909152909216608082015260a081019190915260c00190565b6000604082526139ee6040830185613836565b90508260208301529392505050565b60408082528351828201819052600091906020906060850190828801855b82811015613a4957815180516001600160a01b03168552850151858501529285019290840190600101613a1b565b5050506001600160a01b0395909516930192909252509092915050565b901515815260200190565b600060808252856080830152858760a08401378060a0878401015260a0601f19601f880116830101905060ff851660208301528360408301528260608301529695505050505050565b6020808252601c908201527f4e6f7420656e6f756768742043414b4520666f72206120636c61696d00000000604082015260600190565b6020808252601c908201527f4e6f7420656e6f7567687420616c6c6f77616e636520546f6b656e3100000000604082015260600190565b6020808252601f908201527f73656e64657220616e64207369676e65642075736572206d69736d6174636800604082015260600190565b6020808252602e908201527f66656550657263656e742063616e206e6f74206265206772656174207468616e60408201527f206d617846656550657263656e74000000000000000000000000000000000000606082015260800190565b6020808252600b908201527f696e76616c696420736967000000000000000000000000000000000000000000604082015260600190565b60208082526026908201527f4f776e61626c653a206e6577206f776e657220697320746865207a65726f206160408201527f6464726573730000000000000000000000000000000000000000000000000000606082015260800190565b6020808252601d908201527f6d73672e76616c756520616e6420616d6f756e74206d69736d61746368000000604082015260600190565b60208082526012908201527f4e6f7420656e6f7567687420546f6b656e300000000000000000000000000000604082015260600190565b60208082526022908201527f43616c6c6572206973206e6f742062656e6566696369617279206f72206f776e60408201527f6572000000000000000000000000000000000000000000000000000000000000606082015260800190565b60208082526015908201527f4e6f7420656e6f75676874206c69717569646974790000000000000000000000604082015260600190565b6020808252818101527f4f776e61626c653a2063616c6c6572206973206e6f7420746865206f776e6572604082015260600190565b6020808252600f908201527f52657761726420697320656d7074790000000000000000000000000000000000604082015260600190565b6020808252601f908201527f546f74616c2062616c616e6365206772656174207468616e206d617855534400604082015260600190565b6020808252601c908201527f4e6f7420656e6f7567687420616c6c6f77616e636520546f6b656e3000000000604082015260600190565b6020808252601e908201527f546f74616c2062616c616e6365206c657373207468616e206d696e5553440000604082015260600190565b60208082526012908201527f4e6f7420656e6f7567687420546f6b656e310000000000000000000000000000604082015260600190565b60208082526011908201527f4e6f742061205061727469636970616e74000000000000000000000000000000604082015260600190565b6020808252600e908201527f5472616e73666572206661696c64000000000000000000000000000000000000604082015260600190565b60208082526012908201527f7472616e73666572206973206661696c65640000000000000000000000000000604082015260600190565b90815260200190565b9182526001600160a01b0316602082015260400190565b600083825260406020830152613f786040830184613836565b949350505050565b918252602082015260400190565b93845260208401929092526040830152606082015260800190565b604051601f8201601f1916810167ffffffffffffffff81118282101715613fd257613fd26140d2565b604052919050565b600067ffffffffffffffff821115613ff457613ff46140d2565b5060209081020190565b60008219821115614011576140116140a6565b500190565b600082614025576140256140bc565b500490565b6000816000190483118215151615614044576140446140a6565b500290565b60008282101561405b5761405b6140a6565b500390565b60008161406f5761406f6140a6565b506000190190565b600060001982141561408b5761408b6140a6565b5060010190565b6000826140a1576140a16140bc565b500690565b634e487b7160e01b600052601160045260246000fd5b634e487b7160e01b600052601260045260246000fd5b634e487b7160e01b600052604160045260246000fd5b6001600160a01b0381168114611ffc57600080fdfea26469706673582212205e17a622fb8d55ca07cff9e50d5a2de0163598d497dd4ac7dcd575e28de8e39d64736f6c63430008010033",
  "linkReferences": {},
  "deployedLinkReferences": {}
}