{
  "_format": "hh-sol-artifact-1",
  "contractName": "FrogSponsor",
  "sourceName": "contracts/frogs/FrogSponsor.sol",
  "abi": [
    {
      "inputs": [
        {
          "internalType": "address",
          "name": "_token0",
          "type": "address"
        },
        {
          "internalType": "address",
          "name": "_token1",
          "type": "address"
        },
        {
          "internalType": "bool",
          "name": "_isEthLottery",
          "type": "bool"
        },
        {
          "internalType": "address",
          "name": "_beneficiary",
          "type": "address"
        },
        {
          "internalType": "uint256",
          "name": "_pancakePID",
          "type": "uint256"
        },
        {
          "internalType": "address",
          "name": "_FrogLotteryAddress",
          "type": "address"
        }
      ],
      "stateMutability": "nonpayable",
      "type": "constructor"
    },
    {
      "anonymous": false,
      "inputs": [
        {
          "indexed": true,
          "internalType": "address",
          "name": "_oldBeneficiary",
          "type": "address"
        },
        {
          "indexed": true,
          "internalType": "address",
          "name": "_newBeneficiary",
          "type": "address"
        }
      ],
      "name": "BeneficiaryChanged",
      "type": "event"
    },
    {
      "anonymous": false,
      "inputs": [
        {
          "indexed": true,
          "internalType": "address",
          "name": "_participant",
          "type": "address"
        },
        {
          "indexed": false,
          "internalType": "uint256",
          "name": "_amount",
          "type": "uint256"
        },
        {
          "indexed": false,
          "internalType": "uint256",
          "name": "_oldBalance",
          "type": "uint256"
        }
      ],
      "name": "Deposit",
      "type": "event"
    },
    {
      "anonymous": false,
      "inputs": [
        {
          "indexed": true,
          "internalType": "uint256",
          "name": "_drawNumber",
          "type": "uint256"
        },
        {
          "indexed": false,
          "internalType": "uint256",
          "name": "_fundTotal",
          "type": "uint256"
        },
        {
          "indexed": false,
          "internalType": "uint256",
          "name": "_rewardTotal",
          "type": "uint256"
        }
      ],
      "name": "Draw",
      "type": "event"
    },
    {
      "anonymous": false,
      "inputs": [
        {
          "indexed": true,
          "internalType": "uint256",
          "name": "_oldFeePercent",
          "type": "uint256"
        },
        {
          "indexed": true,
          "internalType": "uint256",
          "name": "_newFeePercent",
          "type": "uint256"
        }
      ],
      "name": "FeePercentChanged",
      "type": "event"
    },
    {
      "anonymous": false,
      "inputs": [
        {
          "indexed": true,
          "internalType": "address",
          "name": "_newParticipant",
          "type": "address"
        }
      ],
      "name": "NewParticipant",
      "type": "event"
    },
    {
      "anonymous": false,
      "inputs": [
        {
          "indexed": true,
          "internalType": "address",
          "name": "previousOwner",
          "type": "address"
        },
        {
          "indexed": true,
          "internalType": "address",
          "name": "newOwner",
          "type": "address"
        }
      ],
      "name": "OwnershipTransferred",
      "type": "event"
    },
    {
      "anonymous": false,
      "inputs": [
        {
          "indexed": true,
          "internalType": "uint256",
          "name": "_drawNumber",
          "type": "uint256"
        },
        {
          "indexed": true,
          "internalType": "address",
          "name": "_winner",
          "type": "address"
        },
        {
          "indexed": false,
          "internalType": "uint256",
          "name": "_amount",
          "type": "uint256"
        }
      ],
      "name": "Victory",
      "type": "event"
    },
    {
      "anonymous": false,
      "inputs": [
        {
          "indexed": true,
          "internalType": "address",
          "name": "_participant",
          "type": "address"
        },
        {
          "indexed": false,
          "internalType": "uint256",
          "name": "_amount",
          "type": "uint256"
        },
        {
          "indexed": false,
          "internalType": "uint256",
          "name": "_oldBalance",
          "type": "uint256"
        }
      ],
      "name": "Withdraw",
      "type": "event"
    },
    {
      "inputs": [
        {
          "components": [
            {
              "internalType": "address",
              "name": "wallet",
              "type": "address"
            },
            {
              "internalType": "uint256",
              "name": "reward",
              "type": "uint256"
            }
          ],
          "internalType": "struct IFrogReferal.ReferersRewardInfo[]",
          "name": "data",
          "type": "tuple[]"
        },
        {
          "internalType": "uint256",
          "name": "referersReward",
          "type": "uint256"
        }
      ],
      "name": "afterDraw",
      "outputs": [],
      "stateMutability": "nonpayable",
      "type": "function"
    },
    {
      "inputs": [
        {
          "internalType": "address",
          "name": "",
          "type": "address"
        }
      ],
      "name": "alreadyParticipant",
      "outputs": [
        {
          "internalType": "bool",
          "name": "",
          "type": "bool"
        }
      ],
      "stateMutability": "view",
      "type": "function"
    },
    {
      "inputs": [
        {
          "internalType": "address",
          "name": "",
          "type": "address"
        }
      ],
      "name": "balanceOf",
      "outputs": [
        {
          "internalType": "uint256",
          "name": "",
          "type": "uint256"
        }
      ],
      "stateMutability": "view",
      "type": "function"
    },
    {
      "inputs": [],
      "name": "beneficiary",
      "outputs": [
        {
          "internalType": "address",
          "name": "",
          "type": "address"
        }
      ],
      "stateMutability": "view",
      "type": "function"
    },
    {
      "inputs": [],
      "name": "claimReward",
      "outputs": [],
      "stateMutability": "nonpayable",
      "type": "function"
    },
    {
      "inputs": [
        {
          "internalType": "uint256",
          "name": "amountToken0",
          "type": "uint256"
        },
        {
          "internalType": "uint256",
          "name": "amountToken1",
          "type": "uint256"
        }
      ],
      "name": "deposit",
      "outputs": [
        {
          "internalType": "bool",
          "name": "success",
          "type": "bool"
        }
      ],
      "stateMutability": "payable",
      "type": "function"
    },
    {
      "inputs": [
        {
          "internalType": "address",
          "name": "",
          "type": "address"
        }
      ],
      "name": "depositOf",
      "outputs": [
        {
          "internalType": "uint256",
          "name": "",
          "type": "uint256"
        }
      ],
      "stateMutability": "view",
      "type": "function"
    },
    {
      "inputs": [],
      "name": "draw",
      "outputs": [],
      "stateMutability": "nonpayable",
      "type": "function"
    },
    {
      "inputs": [],
      "name": "drawNumber",
      "outputs": [
        {
          "internalType": "uint256",
          "name": "",
          "type": "uint256"
        }
      ],
      "stateMutability": "view",
      "type": "function"
    },
    {
      "inputs": [],
      "name": "farmTotal",
      "outputs": [
        {
          "internalType": "uint256",
          "name": "",
          "type": "uint256"
        }
      ],
      "stateMutability": "view",
      "type": "function"
    },
    {
      "inputs": [
        {
          "internalType": "uint256",
          "name": "_amount",
          "type": "uint256"
        },
        {
          "internalType": "address",
          "name": "_tokenIn",
          "type": "address"
        },
        {
          "internalType": "address",
          "name": "_tokenOut",
          "type": "address"
        }
      ],
      "name": "getPSRate",
      "outputs": [
        {
          "internalType": "uint256",
          "name": "",
          "type": "uint256"
        }
      ],
      "stateMutability": "view",
      "type": "function"
    },
    {
      "inputs": [],
      "name": "getParticipants",
      "outputs": [
        {
          "internalType": "address[]",
          "name": "result",
          "type": "address[]"
        },
        {
          "internalType": "uint256",
          "name": "counter",
          "type": "uint256"
        }
      ],
      "stateMutability": "view",
      "type": "function"
    },
    {
      "inputs": [
        {
          "internalType": "address",
          "name": "_participant",
          "type": "address"
        }
      ],
      "name": "isParticipant",
      "outputs": [
        {
          "internalType": "bool",
          "name": "",
          "type": "bool"
        }
      ],
      "stateMutability": "view",
      "type": "function"
    },
    {
      "inputs": [],
      "name": "lpDecimals",
      "outputs": [
        {
          "internalType": "uint256",
          "name": "",
          "type": "uint256"
        }
      ],
      "stateMutability": "view",
      "type": "function"
    },
    {
      "inputs": [],
      "name": "maxUsd",
      "outputs": [
        {
          "internalType": "uint256",
          "name": "",
          "type": "uint256"
        }
      ],
      "stateMutability": "view",
      "type": "function"
    },
    {
      "inputs": [],
      "name": "minUsd",
      "outputs": [
        {
          "internalType": "uint256",
          "name": "",
          "type": "uint256"
        }
      ],
      "stateMutability": "view",
      "type": "function"
    },
    {
      "inputs": [],
      "name": "owner",
      "outputs": [
        {
          "internalType": "address",
          "name": "",
          "type": "address"
        }
      ],
      "stateMutability": "view",
      "type": "function"
    },
    {
      "inputs": [
        {
          "internalType": "uint256",
          "name": "",
          "type": "uint256"
        }
      ],
      "name": "participants",
      "outputs": [
        {
          "internalType": "address",
          "name": "",
          "type": "address"
        }
      ],
      "stateMutability": "view",
      "type": "function"
    },
    {
      "inputs": [],
      "name": "rateLPTokens",
      "outputs": [
        {
          "internalType": "uint256",
          "name": "lpToken0",
          "type": "uint256"
        },
        {
          "internalType": "uint256",
          "name": "lpToken1",
          "type": "uint256"
        }
      ],
      "stateMutability": "view",
      "type": "function"
    },
    {
      "inputs": [
        {
          "internalType": "bytes",
          "name": "message",
          "type": "bytes"
        },
        {
          "internalType": "uint8",
          "name": "v",
          "type": "uint8"
        },
        {
          "internalType": "bytes32",
          "name": "r",
          "type": "bytes32"
        },
        {
          "internalType": "bytes32",
          "name": "s",
          "type": "bytes32"
        },
        {
          "internalType": "uint256",
          "name": "amountToken0",
          "type": "uint256"
        },
        {
          "internalType": "uint256",
          "name": "amountToken1",
          "type": "uint256"
        }
      ],
      "name": "registerBeforeDeposit",
      "outputs": [
        {
          "internalType": "bool",
          "name": "success",
          "type": "bool"
        }
      ],
      "stateMutability": "payable",
      "type": "function"
    },
    {
      "inputs": [],
      "name": "renounceOwnership",
      "outputs": [],
      "stateMutability": "nonpayable",
      "type": "function"
    },
    {
      "inputs": [
        {
          "internalType": "address",
          "name": "",
          "type": "address"
        }
      ],
      "name": "rewardOf",
      "outputs": [
        {
          "internalType": "uint256",
          "name": "",
          "type": "uint256"
        }
      ],
      "stateMutability": "view",
      "type": "function"
    },
    {
      "inputs": [
        {
          "internalType": "address",
          "name": "_token0",
          "type": "address"
        },
        {
          "internalType": "address",
          "name": "_token1",
          "type": "address"
        },
        {
          "internalType": "address",
          "name": "usd",
          "type": "address"
        },
        {
          "internalType": "address",
          "name": "router",
          "type": "address"
        },
        {
          "internalType": "address",
          "name": "masterChef",
          "type": "address"
        },
        {
          "internalType": "address",
          "name": "pair",
          "type": "address"
        }
      ],
      "name": "setAll",
      "outputs": [],
      "stateMutability": "nonpayable",
      "type": "function"
    },
    {
      "inputs": [
        {
          "internalType": "address",
          "name": "_newBeneficiary",
          "type": "address"
        }
      ],
      "name": "setBeneficiary",
      "outputs": [],
      "stateMutability": "nonpayable",
      "type": "function"
    },
    {
      "inputs": [
        {
          "internalType": "uint256",
          "name": "_newFeePercent",
          "type": "uint256"
        }
      ],
      "name": "setFeePercent",
      "outputs": [],
      "stateMutability": "nonpayable",
      "type": "function"
    },
    {
      "inputs": [
        {
          "internalType": "address",
          "name": "_address",
          "type": "address"
        }
      ],
      "name": "setFrogReferalAddress",
      "outputs": [],
      "stateMutability": "nonpayable",
      "type": "function"
    },
    {
      "inputs": [
        {
          "internalType": "uint256",
          "name": "_maxUsd",
          "type": "uint256"
        }
      ],
      "name": "setMaxUsd",
      "outputs": [],
      "stateMutability": "nonpayable",
      "type": "function"
    },
    {
      "inputs": [
        {
          "internalType": "uint256",
          "name": "_minUsd",
          "type": "uint256"
        }
      ],
      "name": "setMinUsd",
      "outputs": [],
      "stateMutability": "nonpayable",
      "type": "function"
    },
    {
      "inputs": [
        {
          "internalType": "address",
          "name": "_address",
          "type": "address"
        }
      ],
      "name": "setPancakeMCAddress",
      "outputs": [],
      "stateMutability": "nonpayable",
      "type": "function"
    },
    {
      "inputs": [
        {
          "internalType": "address",
          "name": "_address",
          "type": "address"
        }
      ],
      "name": "setPancakePairAddress",
      "outputs": [],
      "stateMutability": "nonpayable",
      "type": "function"
    },
    {
      "inputs": [
        {
          "internalType": "address",
          "name": "_address",
          "type": "address"
        }
      ],
      "name": "setPancakeRouterAddress",
      "outputs": [],
      "stateMutability": "nonpayable",
      "type": "function"
    },
    {
      "inputs": [
        {
          "internalType": "address",
          "name": "_cakeContractAddress",
          "type": "address"
        }
      ],
      "name": "setToken0ContractAddress",
      "outputs": [],
      "stateMutability": "nonpayable",
      "type": "function"
    },
    {
      "inputs": [
        {
          "internalType": "address",
          "name": "_address",
          "type": "address"
        }
      ],
      "name": "setToken1ContractAddress",
      "outputs": [],
      "stateMutability": "nonpayable",
      "type": "function"
    },
    {
      "inputs": [
        {
          "internalType": "address",
          "name": "_address",
          "type": "address"
        }
      ],
      "name": "setUsdContractAddress",
      "outputs": [],
      "stateMutability": "nonpayable",
      "type": "function"
    },
    {
      "inputs": [],
      "name": "token0",
      "outputs": [
        {
          "internalType": "address",
          "name": "",
          "type": "address"
        }
      ],
      "stateMutability": "view",
      "type": "function"
    },
    {
      "inputs": [],
      "name": "token1",
      "outputs": [
        {
          "internalType": "address",
          "name": "",
          "type": "address"
        }
      ],
      "stateMutability": "view",
      "type": "function"
    },
    {
      "inputs": [
        {
          "internalType": "address",
          "name": "newOwner",
          "type": "address"
        }
      ],
      "name": "transferOwnership",
      "outputs": [],
      "stateMutability": "nonpayable",
      "type": "function"
    },
    {
      "inputs": [
        {
          "internalType": "uint256",
          "name": "_amount",
          "type": "uint256"
        }
      ],
      "name": "withdraw",
      "outputs": [
        {
          "internalType": "bool",
          "name": "success",
          "type": "bool"
        }
      ],
      "stateMutability": "nonpayable",
      "type": "function"
    },
    {
      "inputs": [
        {
          "internalType": "address",
          "name": "",
          "type": "address"
        }
      ],
      "name": "withdrawOf",
      "outputs": [
        {
          "internalType": "uint256",
          "name": "",
          "type": "uint256"
        }
      ],
      "stateMutability": "view",
      "type": "function"
    },
    {
      "stateMutability": "payable",
      "type": "receive"
    }
  ],
  "bytecode": "0x60a060405260006001556127106002556402540be4006018553480156200002557600080fd5b506040516200435438038062004354833981016040819052620000489162000533565b85856000868686620000636200005d62000177565b6200017b565b600b80546001600160a01b0319166001600160a01b038416179055610bb8601581905560145567016345785d8a000060125568056bc75e2d63100000601355600a8190556017805460ff1916841515179055620000c086620001cb565b620000cb8562000249565b620000ea7355d398326f99059ff775485246999027b3197955620002be565b620001097310ed43c718714eb63d5aa57b78b54704e256024e62000333565b6200012873a5f8c5dbd5f286960b9d90548680ae5ebff07652620003a8565b62000147730ed7e52944161450477ee417de9cd3a859b14fd06200041d565b620001528462000492565b505050505060609190911b6001600160601b03191660805250620005f1945050505050565b3390565b600080546001600160a01b038381166001600160a01b0319831681178455604051919092169283917f8be0079c531659141344cd1fd0a4f28419497f9722a3daafe3b4186f6b6457e09190a35050565b620001d562000507565b6001600160a01b0316336001600160a01b03161480620001ff5750600b546001600160a01b031633145b620002275760405162461bcd60e51b81526004016200021e90620005af565b60405180910390fd5b600380546001600160a01b0319166001600160a01b0392909216919091179055565b6200025362000507565b6001600160a01b0316336001600160a01b031614806200027d5750600b546001600160a01b031633145b6200029c5760405162461bcd60e51b81526004016200021e90620005af565b600480546001600160a01b0319166001600160a01b0392909216919091179055565b620002c862000507565b6001600160a01b0316336001600160a01b03161480620002f25750600b546001600160a01b031633145b620003115760405162461bcd60e51b81526004016200021e90620005af565b600580546001600160a01b0319166001600160a01b0392909216919091179055565b6200033d62000507565b6001600160a01b0316336001600160a01b03161480620003675750600b546001600160a01b031633145b620003865760405162461bcd60e51b81526004016200021e90620005af565b600680546001600160a01b0319166001600160a01b0392909216919091179055565b620003b262000507565b6001600160a01b0316336001600160a01b03161480620003dc5750600b546001600160a01b031633145b620003fb5760405162461bcd60e51b81526004016200021e90620005af565b600780546001600160a01b0319166001600160a01b0392909216919091179055565b6200042762000507565b6001600160a01b0316336001600160a01b03161480620004515750600b546001600160a01b031633145b620004705760405162461bcd60e51b81526004016200021e90620005af565b600880546001600160a01b0319166001600160a01b0392909216919091179055565b6200049c62000507565b6001600160a01b0316336001600160a01b03161480620004c65750600b546001600160a01b031633145b620004e55760405162461bcd60e51b81526004016200021e90620005af565b600980546001600160a01b0319166001600160a01b0392909216919091179055565b6000546001600160a01b031690565b80516001600160a01b03811681146200052e57600080fd5b919050565b60008060008060008060c087890312156200054c578182fd5b620005578762000516565b9550620005676020880162000516565b9450604087015180151581146200057c578283fd5b93506200058c6060880162000516565b925060808701519150620005a360a0880162000516565b90509295509295509295565b60208082526022908201527f43616c6c6572206973206e6f742062656e6566696369617279206f72206f776e60408201526132b960f11b606082015260800190565b60805160601c613d446200061060003960006109260152613d446000f3fe6080604052600436106102a45760003560e01c806370a082311161016e578063cb0a14eb116100cb578063e2bbb1581161007f578063f2fde38b11610064578063f2fde38b146106ca578063f914958b146106ea578063fd0b2fec1461070a576102ab565b8063e2bbb15814610697578063eedbc056146106aa576102ab565b8063d736f8a6116100b0578063d736f8a614610642578063d80ffb2014610662578063dde7cd5114610677576102ab565b8063cb0a14eb1461060d578063d21220a71461062d576102ab565b80638da5cb5b11610122578063b88a802f11610107578063b88a802f146105b8578063bf4f0004146105cd578063c0cb7c6a146105ed576102ab565b80638da5cb5b14610583578063929066f514610598576102ab565b80637a6620d1116101535780637a6620d11461052e5780637ce3489b1461054e578063851ed85e1461056e576102ab565b806370a08231146104f9578063715018a614610519576102ab565b806323ce7fb81161021c57806335c1d349116101d0578063457aa181116101b5578063457aa181146104a157806351b80e41146104c15780635aa68ac0146104d6576102ab565b806335c1d3491461046c57806338af3eed1461048c576102ab565b8063295f39b111610201578063295f39b1146104095780632c6f6ee01461042c5780632e1a7d4d1461044c576102ab565b806323ce7fb8146103c957806323e3fbd5146103e9576102ab565b80631c31f710116102735780631d62ebd9116102585780631d62ebd9146103745780631d6ca518146103945780631dc21194146103b4576102ab565b80631c31f710146103345780631c3b390214610354576102ab565b80630859ea96146102b05780630dfe1681146102d95780630eecae21146102fb578063158f3fe814610312576102ab565b366102ab57005b600080fd5b6102c36102be366004613328565b61072a565b6040516102d091906136eb565b60405180910390f35b3480156102e557600080fd5b506102ee610842565b6040516102d09190613531565b34801561030757600080fd5b50610310610851565b005b34801561031e57600080fd5b50610327610bc4565b6040516102d09190613b8d565b34801561034057600080fd5b5061031061034f3660046130ab565b610bca565b34801561036057600080fd5b5061031061036f3660046130ab565b610c73565b34801561038057600080fd5b5061032761038f3660046130ab565b610ce2565b3480156103a057600080fd5b506103106103af366004613417565b610cf4565b3480156103c057600080fd5b50610327610d46565b3480156103d557600080fd5b506103106103e43660046130ab565b610de9565b3480156103f557600080fd5b506103276104043660046130ab565b610e58565b34801561041557600080fd5b5061041e610e6a565b6040516102d0929190613bc6565b34801561043857600080fd5b5061031061044736600461320b565b610fe2565b34801561045857600080fd5b506102c3610467366004613417565b61125e565b34801561047857600080fd5b506102ee610487366004613417565b6113eb565b34801561049857600080fd5b506102ee611415565b3480156104ad57600080fd5b506103106104bc366004613417565b611424565b3480156104cd57600080fd5b50610327611476565b3480156104e257600080fd5b506104eb61147c565b6040516102d0929190613660565b34801561050557600080fd5b506103276105143660046130ab565b6115d6565b34801561052557600080fd5b506103106115e8565b34801561053a57600080fd5b506103106105493660046130ab565b6115fc565b34801561055a57600080fd5b50610310610569366004613417565b61166b565b34801561057a57600080fd5b5061032761170e565b34801561058f57600080fd5b506102ee611714565b3480156105a457600080fd5b506102c36105b33660046130ab565b611723565b3480156105c457600080fd5b50610310611741565b3480156105d957600080fd5b506103106105e83660046130ab565b61182e565b3480156105f957600080fd5b506103276106083660046130ab565b61189d565b34801561061957600080fd5b506103106106283660046130ab565b6118af565b34801561063957600080fd5b506102ee61191e565b34801561064e57600080fd5b5061031061065d3660046130c7565b61192d565b34801561066e57600080fd5b506103276119e8565b34801561068357600080fd5b506102c36106923660046130ab565b6119ee565b6102c36106a536600461347d565b611a03565b3480156106b657600080fd5b506103106106c53660046130ab565b611cf6565b3480156106d657600080fd5b506103106106e53660046130ab565b611d65565b3480156106f657600080fd5b50610327610705366004613447565b611d9f565b34801561071657600080fd5b506103106107253660046130ab565b611f38565b6009546040517f94dbed5a0000000000000000000000000000000000000000000000000000000081526000916001600160a01b0316906394dbed5a9061077c908b908b908b908b908b906004016136f6565b602060405180830381600087803b15801561079657600080fd5b505af11580156107aa573d6000803e3d6000fd5b505050506040513d601f19601f820116820180604052508101906107ce9190613308565b6107f35760405162461bcd60e51b81526004016107ea9061380a565b60405180910390fd5b6000610801888a018a6130ab565b90506001600160a01b038116331461082b5760405162461bcd60e51b81526004016107ea90613776565b6108358484611a03565b9998505050505050505050565b6003546001600160a01b031681565b610859611714565b6001600160a01b0316336001600160a01b031614806108825750600b546001600160a01b031633145b61089e5760405162461bcd60e51b81526004016107ea9061390c565b6003546040516370a0823160e01b81526000916001600160a01b0316906370a08231906108cf903090600401613531565b60206040518083038186803b1580156108e757600080fd5b505afa1580156108fb573d6000803e3d6000fd5b505050506040513d601f19601f8201168201806040525081019061091f919061342f565b90506000807f00000000000000000000000000000000000000000000000000000000000000006001600160a01b031663db39d6396040518163ffffffff1660e01b815260040160006040518083038186803b15801561097d57600080fd5b505afa158015610991573d6000803e3d6000fd5b505050506040513d6000823e601f3d908101601f191682016040526109b99190810190613148565b805191935091508015610bb657836000805b83811015610a1a578481815181106109f357634e487b7160e01b600052603260045260246000fd5b602002602001015182610a069190613c44565b915080610a1281613cb2565b9150506109cb565b5060018054906000610a2b83613cb2565b919050555060005b83811015610b69576000868281518110610a5d57634e487b7160e01b600052603260045260246000fd5b60200260200101519050600083878481518110610a8a57634e487b7160e01b600052603260045260246000fd5b60200260200101516064610a9e9190613c7c565b610aa89190613c5c565b905060006064610ab88388613c7c565b610ac29190613c5c565b6001600160a01b0384166000908152600f6020526040812080549293508392909190610aef908490613c44565b925050819055508060166000828254610b089190613c44565b92505081905550826001600160a01b03166001547f9515c6f2bffb313099bcee0fbec701e0d75b3e20ca6032804286cb49bb4af2b483604051610b4b9190613b8d565b60405180910390a35050508080610b6190613cb2565b915050610a33565b506001547f79c638881fbfa6a03de3e6af82cf35831eec3d7db9c452bd99e844ae639aa67b876000604051610b9f929190613bc6565b60405180910390a2610baf611fa7565b5050610bbe565b610bbe611fa7565b50505050565b60135481565b610bd2611714565b6001600160a01b0316336001600160a01b03161480610bfb5750600b546001600160a01b031633145b610c175760405162461bcd60e51b81526004016107ea9061390c565b600b546040516001600160a01b038084169216907f768099735d1c322a05a5b9d7b76d99682a1833d3f7055e5ede25e0f2eeaa8c6d90600090a3600b80546001600160a01b0319166001600160a01b0392909216919091179055565b610c7b611714565b6001600160a01b0316336001600160a01b03161480610ca45750600b546001600160a01b031633145b610cc05760405162461bcd60e51b81526004016107ea9061390c565b600980546001600160a01b0319166001600160a01b0392909216919091179055565b600f6020526000908152604090205481565b610cfc611714565b6001600160a01b0316336001600160a01b03161480610d255750600b546001600160a01b031633145b610d415760405162461bcd60e51b81526004016107ea9061390c565b601355565b600754600a546040517f1175a1dd0000000000000000000000000000000000000000000000000000000081526000926001600160a01b031691631175a1dd91610d9491903090600401613b96565b60206040518083038186803b158015610dac57600080fd5b505afa158015610dc0573d6000803e3d6000fd5b505050506040513d601f19601f82011682018060405250810190610de4919061342f565b905090565b610df1611714565b6001600160a01b0316336001600160a01b03161480610e1a5750600b546001600160a01b031633145b610e365760405162461bcd60e51b81526004016107ea9061390c565b600780546001600160a01b0319166001600160a01b0392909216919091179055565b600c6020526000908152604090205481565b600080600080600860009054906101000a90046001600160a01b03166001600160a01b0316630902f1ac6040518163ffffffff1660e01b815260040160606040518083038186803b158015610ebe57600080fd5b505afa158015610ed2573d6000803e3d6000fd5b505050506040513d601f19601f82011682018060405250810190610ef691906133c9565b50915091506000600860009054906101000a90046001600160a01b03166001600160a01b03166318160ddd6040518163ffffffff1660e01b815260040160206040518083038186803b158015610f4b57600080fd5b505afa158015610f5f573d6000803e3d6000fd5b505050506040513d601f19601f82011682018060405250810190610f83919061342f565b905080600254846dffffffffffffffffffffffffffff16610fa49190613c7c565b610fae9190613c5c565b945080600254836dffffffffffffffffffffffffffff16610fcf9190613c7c565b610fd99190613c5c565b93505050509091565b610fea611714565b6001600160a01b0316336001600160a01b031614806110135750600b546001600160a01b031633145b61102f5760405162461bcd60e51b81526004016107ea9061390c565b6016546003546040516370a0823160e01b8152600092916001600160a01b0316906370a0823190611064903090600401613531565b60206040518083038186803b15801561107c57600080fd5b505afa158015611090573d6000803e3d6000fd5b505050506040513d601f19601f820116820180604052508101906110b4919061342f565b6110be9190613c9b565b6009546003546040517ff82df42e0000000000000000000000000000000000000000000000000000000081529293506001600160a01b039182169263f82df42e92611110928892911690600401613682565b600060405180830381600087803b15801561112a57600080fd5b505af115801561113e573d6000803e3d6000fd5b505060035460095460405163a9059cbb60e01b81526001600160a01b03928316945063a9059cbb93506111799290911690869060040161360c565b602060405180830381600087803b15801561119357600080fd5b505af11580156111a7573d6000803e3d6000fd5b505050506040513d601f19601f820116820180604052508101906111cb9190613308565b50600354600b546001600160a01b039182169163a9059cbb91166111ef8585613c9b565b6040518363ffffffff1660e01b815260040161120c92919061360c565b602060405180830381600087803b15801561122657600080fd5b505af115801561123a573d6000803e3d6000fd5b505050506040513d601f19601f82011682018060405250810190610bbe9190613308565b336000908152600e6020908152604080832054600c835281842054600d90935290832054849261128d91613c44565b6112979190613c9b565b10156112b55760405162461bcd60e51b81526004016107ea90613969565b6000806112c0610e6a565b60025460045460055493955091935060009290916112ec9185916001600160a01b039081169116611d9f565b60035460055461130a9187916001600160a01b039182169116611d9f565b6113149190613c44565b336000908152600e6020908152604080832054600c835281842054600d90935292205489929161134391613c44565b61134d9190613c9b565b6113579190613c9b565b6113619190613c7c565b61136b9190613c5c565b905080158061137c57506012548110155b6113985760405162461bcd60e51b81526004016107ea90613a7a565b6013548111156113ba5760405162461bcd60e51b81526004016107ea90613a0c565b336000908152600e6020526040812080548792906113d9908490613c44565b9091555060019450505050505b919050565b601081815481106113fb57600080fd5b6000918252602090912001546001600160a01b0316905081565b600b546001600160a01b031681565b61142c611714565b6001600160a01b0316336001600160a01b031614806114555750600b546001600160a01b031633145b6114715760405162461bcd60e51b81526004016107ea9061390c565b601255565b60125481565b60105460609060009067ffffffffffffffff8111156114ab57634e487b7160e01b600052604160045260246000fd5b6040519080825280602002602001820160405280156114d4578160200160208202803683370190505b5091506000905060005b6010548110156115d1576000600d60006010848154811061150f57634e487b7160e01b600052603260045260246000fd5b60009182526020808320909101546001600160a01b0316835282019290925260400190205411156115bf576010818154811061155b57634e487b7160e01b600052603260045260246000fd5b9060005260206000200160009054906101000a90046001600160a01b031683838151811061159957634e487b7160e01b600052603260045260246000fd5b6001600160a01b0390921660209283029190910190910152816115bb81613cb2565b9250505b806115c981613cb2565b9150506114de565b509091565b600d6020526000908152604090205481565b6115f061269a565b6115fa60006126d9565b565b611604611714565b6001600160a01b0316336001600160a01b0316148061162d5750600b546001600160a01b031633145b6116495760405162461bcd60e51b81526004016107ea9061390c565b600380546001600160a01b0319166001600160a01b0392909216919091179055565b611673611714565b6001600160a01b0316336001600160a01b0316148061169c5750600b546001600160a01b031633145b6116b85760405162461bcd60e51b81526004016107ea9061390c565b6015548111156116da5760405162461bcd60e51b81526004016107ea906137ad565b6014546040518291907f44cb215a0ee4011e0802aea4220545b8f823c5041bb303a4ae1219f99f91e65b90600090a3601455565b60025481565b6000546001600160a01b031690565b6001600160a01b031660009081526011602052604090205460ff1690565b336000908152600f602052604090205461176d5760405162461bcd60e51b81526004016107ea906139d5565b600354336000818152600f60205260409081902054905163a9059cbb60e01b81526001600160a01b039093169263a9059cbb926117ae92909160040161360c565b602060405180830381600087803b1580156117c857600080fd5b505af11580156117dc573d6000803e3d6000fd5b505050506040513d601f19601f820116820180604052508101906118009190613308565b61181c5760405162461bcd60e51b81526004016107ea90613b1f565b336000908152600f6020526040812055565b611836611714565b6001600160a01b0316336001600160a01b0316148061185f5750600b546001600160a01b031633145b61187b5760405162461bcd60e51b81526004016107ea9061390c565b600580546001600160a01b0319166001600160a01b0392909216919091179055565b600e6020526000908152604090205481565b6118b7611714565b6001600160a01b0316336001600160a01b031614806118e05750600b546001600160a01b031633145b6118fc5760405162461bcd60e51b81526004016107ea9061390c565b600480546001600160a01b0319166001600160a01b0392909216919091179055565b6004546001600160a01b031681565b611935611714565b6001600160a01b0316336001600160a01b0316148061195e5750600b546001600160a01b031633145b61197a5760405162461bcd60e51b81526004016107ea9061390c565b600380546001600160a01b03199081166001600160a01b03988916179091556004805482169688169690961790955560068054861693871693909317909255600780548516918616919091179055600880548416918516919091179055600580549092169216919091179055565b60015481565b60116020526000908152604090205460ff1681565b60175460009060ff1615611a3557348214611a305760405162461bcd60e51b81526004016107ea9061389e565b611b8e565b600480546040516370a0823160e01b815284926001600160a01b03909216916370a0823191611a6691339101613531565b60206040518083038186803b158015611a7e57600080fd5b505afa158015611a92573d6000803e3d6000fd5b505050506040513d601f19601f82011682018060405250810190611ab6919061342f565b1015611ad45760405162461bcd60e51b81526004016107ea90613ab1565b600480546040517fdd62ed3e00000000000000000000000000000000000000000000000000000000815284926001600160a01b039092169163dd62ed3e91611b20913391309101613545565b60206040518083038186803b158015611b3857600080fd5b505afa158015611b4c573d6000803e3d6000fd5b505050506040513d601f19601f82011682018060405250810190611b70919061342f565b1015611b8e5760405162461bcd60e51b81526004016107ea9061373f565b6003546040516370a0823160e01b815284916001600160a01b0316906370a0823190611bbe903390600401613531565b60206040518083038186803b158015611bd657600080fd5b505afa158015611bea573d6000803e3d6000fd5b505050506040513d601f19601f82011682018060405250810190611c0e919061342f565b1015611c2c5760405162461bcd60e51b81526004016107ea906138d5565b6003546040517fdd62ed3e00000000000000000000000000000000000000000000000000000000815284916001600160a01b03169063dd62ed3e90611c779033903090600401613545565b60206040518083038186803b158015611c8f57600080fd5b505afa158015611ca3573d6000803e3d6000fd5b505050506040513d601f19601f82011682018060405250810190611cc7919061342f565b1015611ce55760405162461bcd60e51b81526004016107ea90613a43565b611cef8383612729565b9392505050565b611cfe611714565b6001600160a01b0316336001600160a01b03161480611d275750600b546001600160a01b031633145b611d435760405162461bcd60e51b81526004016107ea9061390c565b600680546001600160a01b0319166001600160a01b0392909216919091179055565b611d6d61269a565b6001600160a01b038116611d935760405162461bcd60e51b81526004016107ea90613841565b611d9c816126d9565b50565b60408051600280825260608083018452600093909291906020830190803683370190505090508381600081518110611de757634e487b7160e01b600052603260045260246000fd5b60200260200101906001600160a01b031690816001600160a01b0316815250508281600181518110611e2957634e487b7160e01b600052603260045260246000fd5b6001600160a01b039290921660209283029190910190910152604080516002808252606082810190935281602001602082028036833750506006546040517fd06ca61f0000000000000000000000000000000000000000000000000000000081529293506001600160a01b03169163d06ca61f9150611eae9089908690600401613bad565b60006040518083038186803b158015611ec657600080fd5b505afa158015611eda573d6000803e3d6000fd5b505050506040513d6000823e601f3d908101601f19168201604052611f0291908101906132cd565b905080600181518110611f2557634e487b7160e01b600052603260045260246000fd5b6020026020010151925050509392505050565b611f40611714565b6001600160a01b0316336001600160a01b03161480611f695750600b546001600160a01b031633145b611f855760405162461bcd60e51b81526004016107ea9061390c565b600880546001600160a01b0319166001600160a01b0392909216919091179055565b60005b601054811015611d9c57600060108281548110611fd757634e487b7160e01b600052603260045260246000fd5b60009182526020808320909101546001600160a01b0316808352600c90915260409091205490915015612057576001600160a01b0381166000908152600c6020908152604080832054600d9092528220805491929091612038908490613c44565b90915550506001600160a01b0381166000908152600c60205260408120555b6001600160a01b0381166000908152600e6020526040902054158015906120a157506001600160a01b0381166000908152600d6020908152604080832054600e9092529091205411155b15612687576001600160a01b0381166000908152600e6020908152604080832054600d90925282208054919290916120da908490613c9b565b9091555050600754600a546001600160a01b038381166000908152600e6020526040908190205490517f441a3e70000000000000000000000000000000000000000000000000000000008152919093169263441a3e709261214092909190600401613bc6565b600060405180830381600087803b15801561215a57600080fd5b505af115801561216e573d6000803e3d6000fd5b50506008546006546001600160a01b038581166000908152600e60205260409081902054905163095ea7b360e01b8152938216955063095ea7b394506121bb93929091169160040161360c565b602060405180830381600087803b1580156121d557600080fd5b505af11580156121e9573d6000803e3d6000fd5b505050506040513d601f19601f8201168201806040525081019061220d9190613308565b50600080612219610e6a565b601754919350915060ff1615612428576006546003546001600160a01b038581166000908152600e602052604081205460025491948594908416936302751cec939116919061271061226b838b613c7c565b6122759190613c5c565b612281906126ac613c7c565b61228b9190613c5c565b6002546001600160a01b038b166000908152600e6020526040902054612710906122b5908b613c7c565b6122bf9190613c5c565b6122cb906126ac613c7c565b6122d59190613c5c565b306122e2426104b0613c44565b6040518763ffffffff1660e01b815260040161230396959493929190613625565b6040805180830381600087803b15801561231c57600080fd5b505af1158015612330573d6000803e3d6000fd5b505050506040513d601f19601f82011682018060405250810190612354919061349e565b60035460405163a9059cbb60e01b81529294509092506001600160a01b03169063a9059cbb9061238a908890869060040161360c565b602060405180830381600087803b1580156123a457600080fd5b505af11580156123b8573d6000803e3d6000fd5b505050506040513d601f19601f820116820180604052508101906123dc9190613308565b50846001600160a01b03166108fc601854836123f89190613c5c565b6040518115909202916000818181858888f19350505050158015612420573d6000803e3d6000fd5b50505061266b565b6006546003546004546001600160a01b038681166000908152600e6020526040812054600254919586959084169463baa2abde949182169391169190612710612471838c613c7c565b61247b9190613c5c565b612487906126ac613c7c565b6124919190613c5c565b6002546001600160a01b038c166000908152600e6020526040902054612710906124bb908c613c7c565b6124c59190613c5c565b6124d1906126ac613c7c565b6124db9190613c5c565b306124e8426104b0613c44565b6040518863ffffffff1660e01b815260040161250a9796959493929190613583565b6040805180830381600087803b15801561252357600080fd5b505af1158015612537573d6000803e3d6000fd5b505050506040513d601f19601f8201168201806040525081019061255b919061349e565b60035460405163a9059cbb60e01b81529294509092506001600160a01b03169063a9059cbb90612591908890869060040161360c565b602060405180830381600087803b1580156125ab57600080fd5b505af11580156125bf573d6000803e3d6000fd5b505050506040513d601f19601f820116820180604052508101906125e39190613308565b506004805460405163a9059cbb60e01b81526001600160a01b039091169163a9059cbb9161261591899186910161360c565b602060405180830381600087803b15801561262f57600080fd5b505af1158015612643573d6000803e3d6000fd5b505050506040513d601f19601f820116820180604052508101906126679190613308565b5050505b50506001600160a01b0381166000908152600e60205260408120555b508061269281613cb2565b915050611faa565b6126a2612f79565b6001600160a01b03166126b3611714565b6001600160a01b0316146115fa5760405162461bcd60e51b81526004016107ea906139a0565b600080546001600160a01b038381166001600160a01b0319831681178455604051919092169283917f8be0079c531659141344cd1fd0a4f28419497f9722a3daafe3b4186f6b6457e09190a35050565b6009546040517fdde7cd510000000000000000000000000000000000000000000000000000000081526000916001600160a01b03169063dde7cd5190612773903390600401613531565b60206040518083038186803b15801561278b57600080fd5b505afa15801561279f573d6000803e3d6000fd5b505050506040513d601f19601f820116820180604052508101906127c39190613308565b6127df5760405162461bcd60e51b81526004016107ea90613ae8565b6000806127ea610e6a565b60025460045460055493955091935060009290916128169185916001600160a01b039081169116611d9f565b6003546005546128349187916001600160a01b039182169116611d9f565b61283e9190613c44565b336000908152600e6020908152604080832054600c835281842054600d90935292205461286b9190613c44565b6128759190613c9b565b61287f9190613c7c565b6128899190613c5c565b6004546005549192506000916128ad9188916001600160a01b039182169116611d9f565b6003546005546128cb918a916001600160a01b039182169116611d9f565b6128d59190613c44565b90506128e78282601254601354612f7d565b6012546128f48284613c44565b10156129125760405162461bcd60e51b81526004016107ea90613a7a565b60135461291f8284613c44565b111561293d5760405162461bcd60e51b81526004016107ea90613a0c565b6003546040517f23b872dd0000000000000000000000000000000000000000000000000000000081526000916001600160a01b0316906323b872dd9061298b90339030908d9060040161355f565b602060405180830381600087803b1580156129a557600080fd5b505af11580156129b9573d6000803e3d6000fd5b505050506040513d601f19601f820116820180604052508101906129dd9190613308565b9050806129fc5760405162461bcd60e51b81526004016107ea90613b56565b60035460065460405163095ea7b360e01b81526000926001600160a01b039081169263095ea7b392612a3692909116908d9060040161360c565b602060405180830381600087803b158015612a5057600080fd5b505af1158015612a64573d6000803e3d6000fd5b505050506040513d601f19601f82011682018060405250810190612a889190613308565b5060175460ff1615612b6a576006546003546001600160a01b039182169163f305d719918b91168c612abc61271082613c5c565b612ac8906126ac613c7c565b612ad46127108f613c5c565b612ae0906126ac613c7c565b30612aed426104b0613c44565b6040518863ffffffff1660e01b8152600401612b0e96959493929190613625565b6060604051808303818588803b158015612b2757600080fd5b505af1158015612b3b573d6000803e3d6000fd5b50505050506040513d601f19601f82011682018060405250810190612b6091906134c1565b9250612d91915050565b600480546040517f23b872dd0000000000000000000000000000000000000000000000000000000081526001600160a01b03909116916323b872dd91612bb691339130918e910161355f565b602060405180830381600087803b158015612bd057600080fd5b505af1158015612be4573d6000803e3d6000fd5b505050506040513d601f19601f82011682018060405250810190612c089190613308565b612c245760405162461bcd60e51b81526004016107ea90613b56565b6004805460065460405163095ea7b360e01b81526001600160a01b039283169363095ea7b393612c589316918d910161360c565b602060405180830381600087803b158015612c7257600080fd5b505af1158015612c86573d6000803e3d6000fd5b505050506040513d601f19601f82011682018060405250810190612caa9190613308565b506000612cb96127108b613c5c565b612cc5906126ac613c7c565b90506000612cd56127108b613c5c565b612ce1906126ac613c7c565b6006546003546004549293506001600160a01b039182169263e8e337009291821691168e8e878730612d15426104b0613c44565b6040518963ffffffff1660e01b8152600401612d389897969594939291906135c3565b606060405180830381600087803b158015612d5257600080fd5b505af1158015612d66573d6000803e3d6000fd5b505050506040513d601f19601f82011682018060405250810190612d8a91906134c1565b9450505050505b60085460075460405163095ea7b360e01b81526001600160a01b039283169263095ea7b392612dc792911690859060040161360c565b602060405180830381600087803b158015612de157600080fd5b505af1158015612df5573d6000803e3d6000fd5b505050506040513d601f19601f82011682018060405250810190612e199190613308565b50600754600a546040517fe2bbb1580000000000000000000000000000000000000000000000000000000081526001600160a01b039092169163e2bbb15891612e66918590600401613bc6565b600060405180830381600087803b158015612e8057600080fd5b505af1158015612e94573d6000803e3d6000fd5b5050336000908152600c602052604081208054859450909250612eb8908490613c44565b90915550612ec7905033611723565b612f6a573360008181526011602052604080822080547fffffffffffffffffffffffffffffffffffffffffffffffffffffffffffffff0016600190811790915560108054918201815583527f1b6847dc741a1b0cd08d278845f9d819d87b734759afb55fe2de5cb82a9ae6720180546001600160a01b03191684179055517f79229b212fa3ea547fb5e5b66090cf250d442b12a51854a030f3b796d528134e9190a25b50600198975050505050505050565b3390565b610bbe84848484604051602401612f979493929190613bd4565b60408051601f198184030181529190526020810180517bffffffffffffffffffffffffffffffffffffffffffffffffffffffff167f193fb8000000000000000000000000000000000000000000000000000000000017905280516a636f6e736f6c652e6c6f67602083016000808483855afa5050505050565b600082601f830112613020578081fd5b8151602061303561303083613c20565b613bef565b8281528181019085830183850287018401881015613051578586fd5b855b8581101561306f57815184529284019290840190600101613053565b5090979650505050505050565b80516dffffffffffffffffffffffffffff811681146113e657600080fd5b803560ff811681146113e657600080fd5b6000602082840312156130bc578081fd5b8135611cef81613cf9565b60008060008060008060c087890312156130df578182fd5b86356130ea81613cf9565b955060208701356130fa81613cf9565b9450604087013561310a81613cf9565b9350606087013561311a81613cf9565b9250608087013561312a81613cf9565b915060a087013561313a81613cf9565b809150509295509295509295565b6000806040838503121561315a578182fd5b825167ffffffffffffffff80821115613171578384fd5b818501915085601f830112613184578384fd5b8151602061319461303083613c20565b82815281810190858301838502870184018b10156131b0578889fd5b8896505b848710156131db5780516131c781613cf9565b8352600196909601959183019183016131b4565b50918801519196509093505050808211156131f4578283fd5b5061320185828601613010565b9150509250929050565b600080604080848603121561321e578283fd5b833567ffffffffffffffff811115613234578384fd5b8401601f81018613613244578384fd5b8035602061325461303083613c20565b82815281810190848301868502860184018b1015613270578889fd5b8895505b848610156132bc5786818c03121561328a578889fd5b61329387613bef565b813561329e81613cf9565b81528185013585820152835260019590950194918301918601613274565b509997909101359750505050505050565b6000602082840312156132de578081fd5b815167ffffffffffffffff8111156132f4578182fd5b61330084828501613010565b949350505050565b600060208284031215613319578081fd5b81518015158114611cef578182fd5b600080600080600080600060c0888a031215613342578485fd5b873567ffffffffffffffff80821115613359578687fd5b818a0191508a601f83011261336c578687fd5b81358181111561337a578788fd5b8b602082850101111561338b578788fd5b6020928301995097506133a1918a01905061309a565b96999598509596604081013596506060810135956080820135955060a0909101359350915050565b6000806000606084860312156133dd578081fd5b6133e68461307c565b92506133f46020850161307c565b9150604084015163ffffffff8116811461340c578182fd5b809150509250925092565b600060208284031215613428578081fd5b5035919050565b600060208284031215613440578081fd5b5051919050565b60008060006060848603121561345b578081fd5b83359250602084013561346d81613cf9565b9150604084013561340c81613cf9565b6000806040838503121561348f578182fd5b50508035926020909101359150565b600080604083850312156134b0578182fd5b505080516020909101519092909150565b6000806000606084860312156134d5578081fd5b8351925060208401519150604084015190509250925092565b6000815180845260208085019450808401835b838110156135265781516001600160a01b031687529582019590820190600101613501565b509495945050505050565b6001600160a01b0391909116815260200190565b6001600160a01b0392831681529116602082015260400190565b6001600160a01b039384168152919092166020820152604081019190915260600190565b6001600160a01b039788168152958716602087015260408601949094526060850192909252608084015290921660a082015260c081019190915260e00190565b6001600160a01b039889168152968816602088015260408701959095526060860193909352608085019190915260a084015290921660c082015260e08101919091526101000190565b6001600160a01b03929092168252602082015260400190565b6001600160a01b039687168152602081019590955260408501939093526060840191909152909216608082015260a081019190915260c00190565b60006040825261367360408301856134ee565b90508260208301529392505050565b60408082528351828201819052600091906020906060850190828801855b828110156136ce57815180516001600160a01b031685528501518585015292850192908401906001016136a0565b5050506001600160a01b0395909516930192909252509092915050565b901515815260200190565b600060808252856080830152858760a08401378060a0878401015260a0601f19601f880116830101905060ff851660208301528360408301528260608301529695505050505050565b6020808252601c908201527f4e6f7420656e6f7567687420616c6c6f77616e636520546f6b656e3100000000604082015260600190565b6020808252601f908201527f73656e64657220616e64207369676e65642075736572206d69736d6174636800604082015260600190565b6020808252602e908201527f66656550657263656e742063616e206e6f74206265206772656174207468616e60408201527f206d617846656550657263656e74000000000000000000000000000000000000606082015260800190565b6020808252600b908201527f696e76616c696420736967000000000000000000000000000000000000000000604082015260600190565b60208082526026908201527f4f776e61626c653a206e6577206f776e657220697320746865207a65726f206160408201527f6464726573730000000000000000000000000000000000000000000000000000606082015260800190565b6020808252601d908201527f6d73672e76616c756520616e6420616d6f756e74206d69736d61746368000000604082015260600190565b60208082526012908201527f4e6f7420656e6f7567687420546f6b656e300000000000000000000000000000604082015260600190565b60208082526022908201527f43616c6c6572206973206e6f742062656e6566696369617279206f72206f776e60408201527f6572000000000000000000000000000000000000000000000000000000000000606082015260800190565b60208082526015908201527f4e6f7420656e6f75676874206c69717569646974790000000000000000000000604082015260600190565b6020808252818101527f4f776e61626c653a2063616c6c6572206973206e6f7420746865206f776e6572604082015260600190565b6020808252600f908201527f52657761726420697320656d7074790000000000000000000000000000000000604082015260600190565b6020808252601f908201527f546f74616c2062616c616e6365206772656174207468616e206d617855534400604082015260600190565b6020808252601c908201527f4e6f7420656e6f7567687420616c6c6f77616e636520546f6b656e3000000000604082015260600190565b6020808252601e908201527f546f74616c2062616c616e6365206c657373207468616e206d696e5553440000604082015260600190565b60208082526012908201527f4e6f7420656e6f7567687420546f6b656e310000000000000000000000000000604082015260600190565b60208082526011908201527f4e6f742061205061727469636970616e74000000000000000000000000000000604082015260600190565b6020808252600e908201527f5472616e73666572206661696c64000000000000000000000000000000000000604082015260600190565b60208082526012908201527f7472616e73666572206973206661696c65640000000000000000000000000000604082015260600190565b90815260200190565b9182526001600160a01b0316602082015260400190565b60008382526040602083015261330060408301846134ee565b918252602082015260400190565b93845260208401929092526040830152606082015260800190565b604051601f8201601f1916810167ffffffffffffffff81118282101715613c1857613c18613ce3565b604052919050565b600067ffffffffffffffff821115613c3a57613c3a613ce3565b5060209081020190565b60008219821115613c5757613c57613ccd565b500190565b600082613c7757634e487b7160e01b81526012600452602481fd5b500490565b6000816000190483118215151615613c9657613c96613ccd565b500290565b600082821015613cad57613cad613ccd565b500390565b6000600019821415613cc657613cc6613ccd565b5060010190565b634e487b7160e01b600052601160045260246000fd5b634e487b7160e01b600052604160045260246000fd5b6001600160a01b0381168114611d9c57600080fdfea2646970667358221220dff8818b816fdc61f03b669daf1d804f3546dd1d10101ad4cc7b30927dcda89864736f6c63430008010033",
  "linkReferences": {},
  "deployedLinkReferences": {}
}