{
  "_format": "hh-sol-artifact-1",
  "contractName": "PancakePair",
  "sourceName": "contracts/pancekeswap-fork/pancakepair.sol",
  "abi": [
    {
      "inputs": [],
      "stateMutability": "nonpayable",
      "type": "constructor"
    },
    {
      "inputs": [],
      "name": "DOMAIN_SEPARATOR",
      "outputs": [
        {
          "internalType": "bytes32",
          "name": "",
          "type": "bytes32"
        }
      ],
      "stateMutability": "view",
      "type": "function"
    },
    {
      "inputs": [],
      "name": "MINIMUM_LIQUIDITY",
      "outputs": [
        {
          "internalType": "uint256",
          "name": "",
          "type": "uint256"
        }
      ],
      "stateMutability": "view",
      "type": "function"
    },
    {
      "inputs": [
        {
          "internalType": "address",
          "name": "",
          "type": "address"
        },
        {
          "internalType": "address",
          "name": "",
          "type": "address"
        }
      ],
      "name": "allowance",
      "outputs": [
        {
          "internalType": "uint256",
          "name": "",
          "type": "uint256"
        }
      ],
      "stateMutability": "view",
      "type": "function"
    },
    {
      "inputs": [
        {
          "internalType": "address",
          "name": "spender",
          "type": "address"
        },
        {
          "internalType": "uint256",
          "name": "value",
          "type": "uint256"
        }
      ],
      "name": "approve",
      "outputs": [
        {
          "internalType": "bool",
          "name": "",
          "type": "bool"
        }
      ],
      "stateMutability": "nonpayable",
      "type": "function"
    },
    {
      "inputs": [
        {
          "internalType": "address",
          "name": "",
          "type": "address"
        }
      ],
      "name": "balanceOf",
      "outputs": [
        {
          "internalType": "uint256",
          "name": "",
          "type": "uint256"
        }
      ],
      "stateMutability": "view",
      "type": "function"
    },
    {
      "inputs": [
        {
          "internalType": "address",
          "name": "to",
          "type": "address"
        }
      ],
      "name": "burn",
      "outputs": [
        {
          "internalType": "uint256",
          "name": "amount0",
          "type": "uint256"
        },
        {
          "internalType": "uint256",
          "name": "amount1",
          "type": "uint256"
        }
      ],
      "stateMutability": "nonpayable",
      "type": "function"
    },
    {
      "inputs": [],
      "name": "decimals",
      "outputs": [
        {
          "internalType": "uint8",
          "name": "",
          "type": "uint8"
        }
      ],
      "stateMutability": "view",
      "type": "function"
    },
    {
      "inputs": [],
      "name": "factory",
      "outputs": [
        {
          "internalType": "address",
          "name": "",
          "type": "address"
        }
      ],
      "stateMutability": "view",
      "type": "function"
    },
    {
      "inputs": [],
      "name": "getReserves",
      "outputs": [
        {
          "internalType": "uint112",
          "name": "_reserve0",
          "type": "uint112"
        },
        {
          "internalType": "uint112",
          "name": "_reserve1",
          "type": "uint112"
        },
        {
          "internalType": "uint32",
          "name": "_blockTimestampLast",
          "type": "uint32"
        }
      ],
      "stateMutability": "view",
      "type": "function"
    },
    {
      "inputs": [
        {
          "internalType": "address",
          "name": "_token0",
          "type": "address"
        },
        {
          "internalType": "address",
          "name": "_token1",
          "type": "address"
        },
        {
          "internalType": "bool",
          "name": "_isEthPair",
          "type": "bool"
        }
      ],
      "name": "initialize",
      "outputs": [],
      "stateMutability": "nonpayable",
      "type": "function"
    },
    {
      "inputs": [],
      "name": "kLast",
      "outputs": [
        {
          "internalType": "uint256",
          "name": "",
          "type": "uint256"
        }
      ],
      "stateMutability": "view",
      "type": "function"
    },
    {
      "inputs": [
        {
          "internalType": "address",
          "name": "to",
          "type": "address"
        }
      ],
      "name": "mint",
      "outputs": [
        {
          "internalType": "uint256",
          "name": "liquidity",
          "type": "uint256"
        }
      ],
      "stateMutability": "nonpayable",
      "type": "function"
    },
    {
      "inputs": [],
      "name": "name",
      "outputs": [
        {
          "internalType": "string",
          "name": "",
          "type": "string"
        }
      ],
      "stateMutability": "view",
      "type": "function"
    },
    {
      "inputs": [
        {
          "internalType": "address",
          "name": "",
          "type": "address"
        }
      ],
      "name": "nonces",
      "outputs": [
        {
          "internalType": "uint256",
          "name": "",
          "type": "uint256"
        }
      ],
      "stateMutability": "view",
      "type": "function"
    },
    {
      "inputs": [
        {
          "internalType": "address",
          "name": "owner",
          "type": "address"
        },
        {
          "internalType": "address",
          "name": "spender",
          "type": "address"
        },
        {
          "internalType": "uint256",
          "name": "value",
          "type": "uint256"
        },
        {
          "internalType": "uint256",
          "name": "deadline",
          "type": "uint256"
        },
        {
          "internalType": "uint8",
          "name": "v",
          "type": "uint8"
        },
        {
          "internalType": "bytes32",
          "name": "r",
          "type": "bytes32"
        },
        {
          "internalType": "bytes32",
          "name": "s",
          "type": "bytes32"
        }
      ],
      "name": "permit",
      "outputs": [],
      "stateMutability": "nonpayable",
      "type": "function"
    },
    {
      "inputs": [],
      "name": "price0CumulativeLast",
      "outputs": [
        {
          "internalType": "uint256",
          "name": "",
          "type": "uint256"
        }
      ],
      "stateMutability": "view",
      "type": "function"
    },
    {
      "inputs": [],
      "name": "price1CumulativeLast",
      "outputs": [
        {
          "internalType": "uint256",
          "name": "",
          "type": "uint256"
        }
      ],
      "stateMutability": "view",
      "type": "function"
    },
    {
      "inputs": [
        {
          "internalType": "address",
          "name": "to",
          "type": "address"
        }
      ],
      "name": "skim",
      "outputs": [],
      "stateMutability": "nonpayable",
      "type": "function"
    },
    {
      "inputs": [
        {
          "internalType": "uint256",
          "name": "amount0Out",
          "type": "uint256"
        },
        {
          "internalType": "uint256",
          "name": "amount1Out",
          "type": "uint256"
        },
        {
          "internalType": "address",
          "name": "to",
          "type": "address"
        },
        {
          "internalType": "bytes",
          "name": "data",
          "type": "bytes"
        }
      ],
      "name": "swap",
      "outputs": [],
      "stateMutability": "nonpayable",
      "type": "function"
    },
    {
      "inputs": [],
      "name": "symbol",
      "outputs": [
        {
          "internalType": "string",
          "name": "",
          "type": "string"
        }
      ],
      "stateMutability": "view",
      "type": "function"
    },
    {
      "inputs": [],
      "name": "sync",
      "outputs": [],
      "stateMutability": "nonpayable",
      "type": "function"
    },
    {
      "inputs": [],
      "name": "token0",
      "outputs": [
        {
          "internalType": "address",
          "name": "",
          "type": "address"
        }
      ],
      "stateMutability": "view",
      "type": "function"
    },
    {
      "inputs": [],
      "name": "token1",
      "outputs": [
        {
          "internalType": "address",
          "name": "",
          "type": "address"
        }
      ],
      "stateMutability": "view",
      "type": "function"
    },
    {
      "inputs": [],
      "name": "totalSupply",
      "outputs": [
        {
          "internalType": "uint256",
          "name": "",
          "type": "uint256"
        }
      ],
      "stateMutability": "view",
      "type": "function"
    },
    {
      "inputs": [
        {
          "internalType": "address",
          "name": "to",
          "type": "address"
        },
        {
          "internalType": "uint256",
          "name": "value",
          "type": "uint256"
        }
      ],
      "name": "transfer",
      "outputs": [
        {
          "internalType": "bool",
          "name": "",
          "type": "bool"
        }
      ],
      "stateMutability": "nonpayable",
      "type": "function"
    },
    {
      "inputs": [
        {
          "internalType": "address",
          "name": "from",
          "type": "address"
        },
        {
          "internalType": "address",
          "name": "to",
          "type": "address"
        },
        {
          "internalType": "uint256",
          "name": "value",
          "type": "uint256"
        }
      ],
      "name": "transferFrom",
      "outputs": [
        {
          "internalType": "bool",
          "name": "",
          "type": "bool"
        }
      ],
      "stateMutability": "nonpayable",
      "type": "function"
    }
  ],
  "bytecode": "0x60806040526001600c556402540be400600e5534801561001e57600080fd5b50604080518082018252600b81526a50616e63616b65204c507360a81b6020918201528151808301835260018152603160f81b90820152905146916100cd917f8b73c3c69bb8fe3d512ecc4cf759cc79239f7b179b0ffacaa9a75d522b39400f917fe87cb5a4dc26cf9451529a20899fcee996799afd48d7c0db7c25e150b364661d917fc89efdaa54c0f20c7adf612882df0950f5a951637e0307cdcb4c672f298b8bc6918691309101610100565b60408051601f19818403018152919052805160209091012060035550600580546001600160a01b0319163317905561012c565b9485526020850193909352604084019190915260608301526001600160a01b0316608082015260a00190565b61203f8061013b6000396000f3fe608060405234801561001057600080fd5b50600436106101ae5760003560e01c80637464fc3d116100ee578063bc25cf7711610097578063d505accf11610071578063d505accf1461032f578063dd62ed3e14610342578063e4bbb5a814610355578063fff6cae914610368576101ae565b8063bc25cf771461030c578063c45a01551461031f578063d21220a714610327576101ae565b806395d89b41116100c857806395d89b41146102e9578063a9059cbb146102f1578063ba9a7a5614610304576101ae565b80637464fc3d146102ad5780637ecebe00146102b557806389afcb44146102c8576101ae565b806323b872dd1161015b5780635909c0d5116101355780635909c0d5146102775780635a3d54931461027f5780636a6278421461028757806370a082311461029a576101ae565b806323b872dd14610247578063313ce5671461025a5780633644e5151461026f576101ae565b8063095ea7b31161018c578063095ea7b3146101fd5780630dfe16811461021d57806318160ddd14610232576101ae565b8063022c0d9f146101b357806306fdde03146101c85780630902f1ac146101e6575b600080fd5b6101c66101c13660046119e9565b610370565b005b6101d0610767565b6040516101dd9190611b08565b60405180910390f35b6101ee6107a0565b6040516101dd93929190611e50565b61021061020b36600461198a565b6107ca565b6040516101dd9190611af4565b6102256107e0565b6040516101dd9190611a7a565b61023a6107ef565b6040516101dd9190611aff565b6102106102553660046118d5565b6107f5565b610262610889565b6040516101dd9190611e87565b61023a61088e565b61023a610894565b61023a61089a565b61023a61029536600461181b565b6108a0565b61023a6102a836600461181b565b610b11565b61023a610b23565b61023a6102c336600461181b565b610b29565b6102db6102d636600461181b565b610b3b565b6040516101dd929190611e79565b6101d0610e8c565b6102106102ff36600461198a565b610ec5565b61023a610ed2565b6101c661031a36600461181b565b610ed8565b610225611000565b61022561100f565b6101c661033d366004611915565b61101e565b61023a610350366004611853565b611027565b6101c661036336600461188b565b611044565b6101c66110e8565b600c5460011461039b5760405162461bcd60e51b815260040161039290611cf1565b60405180910390fd5b6000600c55841515806103ae5750600084115b6103ca5760405162461bcd60e51b815260040161039290611d28565b6000806103d56107a0565b5091509150816001600160701b0316871080156103fa5750806001600160701b031686105b6104165760405162461bcd60e51b815260040161039290611bc9565b60065460075460009182916001600160a01b039182169190811690891682148015906104545750806001600160a01b0316896001600160a01b031614155b6104705760405162461bcd60e51b815260040161039290611b5b565b8a1561048157610481828a8d611234565b891561049257610492818a8c611234565b8615610518576040517f848008120000000000000000000000000000000000000000000000000000000081526001600160a01b038a16906384800812906104e59033908f908f908e908e90600401611aa7565b600060405180830381600087803b1580156104ff57600080fd5b505af1158015610513573d6000803e3d6000fd5b505050505b6040516370a0823160e01b81526001600160a01b038316906370a0823190610544903090600401611a7a565b60206040518083038186803b15801561055c57600080fd5b505afa158015610570573d6000803e3d6000fd5b505050506040513d601f19601f8201168201806040525081019061059491906119d1565b6040516370a0823160e01b81529094506001600160a01b038216906370a08231906105c3903090600401611a7a565b60206040518083038186803b1580156105db57600080fd5b505afa1580156105ef573d6000803e3d6000fd5b505050506040513d601f19601f8201168201806040525081019061061391906119d1565b92505050600089856001600160701b031661062e9190611f35565b831161063b576000610658565b61064e8a6001600160701b038716611f35565b6106589084611f35565b9050600061066f8a6001600160701b038716611f35565b831161067c576000610699565b61068f8a6001600160701b038716611f35565b6106999084611f35565b905060008211806106aa5750600081115b6106c65760405162461bcd60e51b815260040161039290611c37565b60006106e86106d68460026112ee565b6106e2876103e86112ee565b90611301565b905060006106fa6106d68460026112ee565b905061071f620f42406107196001600160701b038b8116908b166112ee565b906112ee565b61072983836112ee565b10156107475760405162461bcd60e51b815260040161039290611b92565b50506107558484888861130d565b50506001600c55505050505050505050565b6040518060400160405280600b81526020017f50616e63616b65204c507300000000000000000000000000000000000000000081525081565b6008546001600160701b0380821692600160701b830490911691600160e01b900463ffffffff1690565b60006107d73384846114c7565b50600192915050565b6006546001600160a01b031681565b60005481565b6001600160a01b038316600090815260026020908152604080832033845290915281205460001914610874576001600160a01b038416600090815260026020908152604080832033845290915290205461084f9083611301565b6001600160a01b03851660009081526002602090815260408083203384529091529020555b61087f8484846114f3565b5060019392505050565b601281565b60035481565b60095481565b600a5481565b6000600c546001146108c45760405162461bcd60e51b815260040161039290611cf1565b6000600c819055806108d46107a0565b506006546040516370a0823160e01b81529294509092506000916001600160a01b03909116906370a082319061090e903090600401611a7a565b60206040518083038186803b15801561092657600080fd5b505afa15801561093a573d6000803e3d6000fd5b505050506040513d601f19601f8201168201806040525081019061095e91906119d1565b6007546040516370a0823160e01b81529192506000916001600160a01b03909116906370a0823190610994903090600401611a7a565b60206040518083038186803b1580156109ac57600080fd5b505afa1580156109c0573d6000803e3d6000fd5b505050506040513d601f19601f820116820180604052508101906109e491906119d1565b905060006109fb836001600160701b038716611301565b90506000610a12836001600160701b038716611301565b90506000610a208787611566565b60005490915080610a5757610a436103e86106e2610a3e87876112ee565b6116b2565b9850610a5260006103e8611722565b610a9e565b610a9b6001600160701b038916610a6e86846112ee565b610a789190611ed3565b6001600160701b038916610a8c86856112ee565b610a969190611ed3565b611774565b98505b60008911610abe5760405162461bcd60e51b815260040161039290611dbc565b610ac88a8a611722565b610ad486868a8a61130d565b8115610afe57600854610afa906001600160701b0380821691600160701b9004166112ee565b600b555b50506001600c5550949695505050505050565b60016020526000908152604090205481565b600b5481565b60046020526000908152604090205481565b600080600c54600114610b605760405162461bcd60e51b815260040161039290611cf1565b6000600c81905580610b706107a0565b506006546007546040516370a0823160e01b81529395509193506001600160a01b039081169291169060009083906370a0823190610bb2903090600401611a7a565b60206040518083038186803b158015610bca57600080fd5b505afa158015610bde573d6000803e3d6000fd5b505050506040513d601f19601f82011682018060405250810190610c0291906119d1565b90506000826001600160a01b03166370a08231306040518263ffffffff1660e01b8152600401610c329190611a7a565b60206040518083038186803b158015610c4a57600080fd5b505afa158015610c5e573d6000803e3d6000fd5b505050506040513d601f19601f82011682018060405250810190610c8291906119d1565b30600090815260016020526040812054919250610c9f8888611566565b60005490915080610cb084876112ee565b610cba9190611ed3565b9a5080610cc784866112ee565b610cd19190611ed3565b995060008b118015610ce3575060008a115b610cff5760405162461bcd60e51b815260040161039290611c94565b610d09308461178a565b610d14878d8d611234565b600d5460009060ff16610d28576001610d2c565b600e545b9050610d42878e610d3d848f611ed3565b611234565b6040516370a0823160e01b81526001600160a01b038916906370a0823190610d6e903090600401611a7a565b60206040518083038186803b158015610d8657600080fd5b505afa158015610d9a573d6000803e3d6000fd5b505050506040513d601f19601f82011682018060405250810190610dbe91906119d1565b6040516370a0823160e01b81529096506001600160a01b038816906370a0823190610ded903090600401611a7a565b60206040518083038186803b158015610e0557600080fd5b505afa158015610e19573d6000803e3d6000fd5b505050506040513d601f19601f82011682018060405250810190610e3d91906119d1565b9450610e4b86868c8c61130d565b8215610e7557600854610e71906001600160701b0380821691600160701b9004166112ee565b600b555b505050505050505050506001600c81905550915091565b6040518060400160405280600781526020017f43616b652d4c500000000000000000000000000000000000000000000000000081525081565b60006107d73384846114f3565b6103e881565b600c54600114610efa5760405162461bcd60e51b815260040161039290611cf1565b6000600c556006546007546008546040516370a0823160e01b81526001600160a01b039384169390921691610fa39184918691610d3d916001600160701b039091169084906370a0823190610f53903090600401611a7a565b60206040518083038186803b158015610f6b57600080fd5b505afa158015610f7f573d6000803e3d6000fd5b505050506040513d601f19601f820116820180604052508101906106e291906119d1565b610ff68184610d3d6008600e9054906101000a90046001600160701b03166001600160701b0316856001600160a01b03166370a08231306040518263ffffffff1660e01b8152600401610f539190611a7a565b50506001600c5550565b6005546001600160a01b031681565b6007546001600160a01b031681565b50505050505050565b600260209081526000928352604080842090915290825290205481565b6005546001600160a01b0316331461106e5760405162461bcd60e51b815260040161039290611e19565b600680547fffffffffffffffffffffffff00000000000000000000000000000000000000009081166001600160a01b0395861617909155600780549091169290931691909117909155600d80547fffffffffffffffffffffffffffffffffffffffffffffffffffffffffffffff0016911515919091179055565b600c5460011461110a5760405162461bcd60e51b815260040161039290611cf1565b6000600c556006546040516370a0823160e01b815261122d916001600160a01b0316906370a0823190611141903090600401611a7a565b60206040518083038186803b15801561115957600080fd5b505afa15801561116d573d6000803e3d6000fd5b505050506040513d601f19601f8201168201806040525081019061119191906119d1565b6007546040516370a0823160e01b81526001600160a01b03909116906370a08231906111c1903090600401611a7a565b60206040518083038186803b1580156111d957600080fd5b505afa1580156111ed573d6000803e3d6000fd5b505050506040513d601f19601f8201168201806040525081019061121191906119d1565b6008546001600160701b0380821691600160701b90041661130d565b6001600c55565b6040517fa9059cbb0000000000000000000000000000000000000000000000000000000081526001600160a01b0384169063a9059cbb9061127b9085908590600401611a8e565b602060405180830381600087803b15801561129557600080fd5b505af11580156112a9573d6000803e3d6000fd5b505050506040513d601f19601f820116820180604052508101906112cd91906119b5565b6112e95760405162461bcd60e51b815260040161039290611c00565b505050565b60006112fa8284611f16565b9392505050565b60006112fa8284611f35565b6001600160701b03841180159061132b57506001600160701b038311155b6113475760405162461bcd60e51b815260040161039290611d85565b600061135864010000000042611f71565b60085490915060009061137890600160e01b900463ffffffff1683611f4c565b905060008163ffffffff1611801561139857506001600160701b03841615155b80156113ac57506001600160701b03831615155b1561143b578063ffffffff166113d4856113c5866117db565b6001600160e01b0316906117fa565b6001600160e01b03166113e79190611f16565b600960008282546113f89190611e95565b909155505063ffffffff8116611411846113c5876117db565b6001600160e01b03166114249190611f16565b600a60008282546114359190611e95565b90915550505b50600880547fffffffffffffffffffffffffffffffffffff0000000000000000000000000000166001600160701b03968716177fffffffff0000000000000000000000000000ffffffffffffffffffffffffffff16600160701b9590961694909402949094176001600160e01b0316600160e01b63ffffffff9590951694909402939093179091555050565b6001600160a01b0392831660009081526002602090815260408083209490951682529290925291902055565b6001600160a01b0383166000908152600160205260409020546115169082611301565b6001600160a01b038085166000908152600160205260408082209390935590841681522054611545908261180f565b6001600160a01b039092166000908152600160205260409020919091555050565b600080600560009054906101000a90046001600160a01b03166001600160a01b031663017e7e586040518163ffffffff1660e01b815260040160206040518083038186803b1580156115b757600080fd5b505afa1580156115cb573d6000803e3d6000fd5b505050506040513d601f19601f820116820180604052508101906115ef9190611837565b600b546001600160a01b03821615801594509192509061169e57801561169957600061162a610a3e6001600160701b038881169088166112ee565b90506000611637836116b2565b9050808211156116965760006116596116508484611301565b600054906112ee565b905060006116728361166c8660036112ee565b9061180f565b905060006116808284611ed3565b90508015611692576116928782611722565b5050505b50505b6116aa565b80156116aa576000600b555b505092915050565b6000600382111561171357508060006116cc600283611ed3565b6116d7906001611e95565b90505b8181101561170d579050806002816116f28186611ed3565b6116fc9190611e95565b6117069190611ed3565b90506116da565b5061171d565b811561171d575060015b919050565b60005461172f908261180f565b60009081556001600160a01b038316815260016020526040902054611754908261180f565b6001600160a01b0390921660009081526001602052604090209190915550565b600081831061178357816112fa565b5090919050565b6001600160a01b0382166000908152600160205260409020546117ad9082611301565b6001600160a01b038316600090815260016020526040812091909155546117d49082611301565b6000555050565b60006117f4600160701b6001600160701b038416611ee7565b92915050565b60006112fa6001600160701b03831684611ead565b60006112fa8284611e95565b60006020828403121561182c578081fd5b81356112fa81611fe3565b600060208284031215611848578081fd5b81516112fa81611fe3565b60008060408385031215611865578081fd5b823561187081611fe3565b9150602083013561188081611fe3565b809150509250929050565b60008060006060848603121561189f578081fd5b83356118aa81611fe3565b925060208401356118ba81611fe3565b915060408401356118ca81611ffb565b809150509250925092565b6000806000606084860312156118e9578283fd5b83356118f481611fe3565b9250602084013561190481611fe3565b929592945050506040919091013590565b600080600080600080600060e0888a03121561192f578283fd5b873561193a81611fe3565b9650602088013561194a81611fe3565b95506040880135945060608801359350608088013560ff8116811461196d578384fd5b9699959850939692959460a0840135945060c09093013592915050565b6000806040838503121561199c578182fd5b82356119a781611fe3565b946020939093013593505050565b6000602082840312156119c6578081fd5b81516112fa81611ffb565b6000602082840312156119e2578081fd5b5051919050565b600080600080600060808688031215611a00578081fd5b85359450602086013593506040860135611a1981611fe3565b9250606086013567ffffffffffffffff80821115611a35578283fd5b818801915088601f830112611a48578283fd5b813581811115611a56578384fd5b896020828501011115611a67578384fd5b9699959850939650602001949392505050565b6001600160a01b0391909116815260200190565b6001600160a01b03929092168252602082015260400190565b60006001600160a01b038716825285602083015284604083015260806060830152826080830152828460a084013781830160a090810191909152601f909201601f19160101949350505050565b901515815260200190565b90815260200190565b6000602080835283518082850152825b81811015611b3457858101830151858201604001528201611b18565b81811115611b455783604083870101525b50601f01601f1916929092016040019392505050565b60208082526013908201527f50616e63616b653a20494e56414c49445f544f00000000000000000000000000604082015260600190565b6020808252600a908201527f50616e63616b653a204b00000000000000000000000000000000000000000000604082015260600190565b6020808252601f908201527f50616e63616b653a20494e53554646494349454e545f4c495155494449545900604082015260600190565b60208082526018908201527f50616e63616b653a205452414e534645525f4641494c45440000000000000000604082015260600190565b60208082526022908201527f50616e63616b653a20494e53554646494349454e545f494e5055545f414d4f5560408201527f4e54000000000000000000000000000000000000000000000000000000000000606082015260800190565b60208082526026908201527f50616e63616b653a20494e53554646494349454e545f4c49515549444954595f60408201527f4255524e45440000000000000000000000000000000000000000000000000000606082015260800190565b6020808252600f908201527f50616e63616b653a204c4f434b45440000000000000000000000000000000000604082015260600190565b60208082526023908201527f50616e63616b653a20494e53554646494349454e545f4f55545055545f414d4f60408201527f554e540000000000000000000000000000000000000000000000000000000000606082015260800190565b60208082526011908201527f50616e63616b653a204f564552464c4f57000000000000000000000000000000604082015260600190565b60208082526026908201527f50616e63616b653a20494e53554646494349454e545f4c49515549444954595f60408201527f4d494e5445440000000000000000000000000000000000000000000000000000606082015260800190565b60208082526012908201527f50616e63616b653a20464f5242494444454e0000000000000000000000000000604082015260600190565b6001600160701b03938416815291909216602082015263ffffffff909116604082015260600190565b918252602082015260400190565b60ff91909116815260200190565b60008219821115611ea857611ea8611f85565b500190565b60006001600160e01b0380841680611ec757611ec7611fb4565b92169190910492915050565b600082611ee257611ee2611fb4565b500490565b60006001600160e01b0380831681851681830481118215151615611f0d57611f0d611f85565b02949350505050565b6000816000190483118215151615611f3057611f30611f85565b500290565b600082821015611f4757611f47611f85565b500390565b600063ffffffff83811690831681811015611f6957611f69611f85565b039392505050565b600082611f8057611f80611fb4565b500690565b7f4e487b7100000000000000000000000000000000000000000000000000000000600052601160045260246000fd5b7f4e487b7100000000000000000000000000000000000000000000000000000000600052601260045260246000fd5b6001600160a01b0381168114611ff857600080fd5b50565b8015158114611ff857600080fdfea26469706673582212202e157fba29f431421158e77bd541d77ad90b37e89fa262dd01bcf4ab2d044e3464736f6c63430008010033",
  "linkReferences": {},
  "deployedLinkReferences": {}
}