{
  "_format": "hh-sol-artifact-1",
  "contractName": "FrogReferal",
  "sourceName": "contracts/frogs/FrogReferal.sol",
  "abi": [
    {
      "inputs": [
        {
          "internalType": "address",
          "name": "_beneficiary",
          "type": "address"
        },
        {
          "internalType": "address",
          "name": "_publicKey",
          "type": "address"
        }
      ],
      "stateMutability": "nonpayable",
      "type": "constructor"
    },
    {
      "anonymous": false,
      "inputs": [
        {
          "indexed": true,
          "internalType": "address",
          "name": "previousOwner",
          "type": "address"
        },
        {
          "indexed": true,
          "internalType": "address",
          "name": "newOwner",
          "type": "address"
        }
      ],
      "name": "OwnershipTransferred",
      "type": "event"
    },
    {
      "anonymous": false,
      "inputs": [
        {
          "indexed": false,
          "internalType": "address",
          "name": "to",
          "type": "address"
        },
        {
          "indexed": false,
          "internalType": "address",
          "name": "lotteryAddress",
          "type": "address"
        },
        {
          "indexed": false,
          "internalType": "uint256",
          "name": "reward",
          "type": "uint256"
        }
      ],
      "name": "ReferalReward",
      "type": "event"
    },
    {
      "inputs": [
        {
          "components": [
            {
              "internalType": "address",
              "name": "wallet",
              "type": "address"
            },
            {
              "internalType": "uint256",
              "name": "reward",
              "type": "uint256"
            }
          ],
          "internalType": "struct IFrogReferal.ReferersRewardInfo[]",
          "name": "data",
          "type": "tuple[]"
        },
        {
          "internalType": "address",
          "name": "token",
          "type": "address"
        }
      ],
      "name": "accrueRewardFromWinningReferral",
      "outputs": [],
      "stateMutability": "nonpayable",
      "type": "function"
    },
    {
      "inputs": [
        {
          "internalType": "address",
          "name": "",
          "type": "address"
        }
      ],
      "name": "alreadyParticipant",
      "outputs": [
        {
          "internalType": "bool",
          "name": "",
          "type": "bool"
        }
      ],
      "stateMutability": "view",
      "type": "function"
    },
    {
      "inputs": [
        {
          "internalType": "address",
          "name": "",
          "type": "address"
        },
        {
          "internalType": "address",
          "name": "",
          "type": "address"
        }
      ],
      "name": "balance",
      "outputs": [
        {
          "internalType": "uint256",
          "name": "",
          "type": "uint256"
        }
      ],
      "stateMutability": "view",
      "type": "function"
    },
    {
      "inputs": [],
      "name": "beneficiary",
      "outputs": [
        {
          "internalType": "address",
          "name": "",
          "type": "address"
        }
      ],
      "stateMutability": "view",
      "type": "function"
    },
    {
      "inputs": [
        {
          "internalType": "address",
          "name": "token",
          "type": "address"
        }
      ],
      "name": "claimReward",
      "outputs": [],
      "stateMutability": "nonpayable",
      "type": "function"
    },
    {
      "inputs": [
        {
          "internalType": "address",
          "name": "",
          "type": "address"
        }
      ],
      "name": "isLottery",
      "outputs": [
        {
          "internalType": "bool",
          "name": "",
          "type": "bool"
        }
      ],
      "stateMutability": "view",
      "type": "function"
    },
    {
      "inputs": [],
      "name": "owner",
      "outputs": [
        {
          "internalType": "address",
          "name": "",
          "type": "address"
        }
      ],
      "stateMutability": "view",
      "type": "function"
    },
    {
      "inputs": [
        {
          "internalType": "address",
          "name": "newLotteryAddress",
          "type": "address"
        }
      ],
      "name": "registerNewLottery",
      "outputs": [],
      "stateMutability": "nonpayable",
      "type": "function"
    },
    {
      "inputs": [
        {
          "internalType": "bytes",
          "name": "message",
          "type": "bytes"
        },
        {
          "internalType": "uint8",
          "name": "_v",
          "type": "uint8"
        },
        {
          "internalType": "bytes32",
          "name": "_r",
          "type": "bytes32"
        },
        {
          "internalType": "bytes32",
          "name": "_s",
          "type": "bytes32"
        }
      ],
      "name": "registerReferal",
      "outputs": [
        {
          "internalType": "bool",
          "name": "result",
          "type": "bool"
        }
      ],
      "stateMutability": "nonpayable",
      "type": "function"
    },
    {
      "inputs": [],
      "name": "renounceOwnership",
      "outputs": [],
      "stateMutability": "nonpayable",
      "type": "function"
    },
    {
      "inputs": [
        {
          "internalType": "address",
          "name": "_newBeneficiary",
          "type": "address"
        }
      ],
      "name": "setBeneficiary",
      "outputs": [],
      "stateMutability": "nonpayable",
      "type": "function"
    },
    {
      "inputs": [
        {
          "internalType": "address",
          "name": "factory",
          "type": "address"
        }
      ],
      "name": "setFactoryAddress",
      "outputs": [],
      "stateMutability": "nonpayable",
      "type": "function"
    },
    {
      "inputs": [
        {
          "internalType": "address",
          "name": "_publicKey",
          "type": "address"
        }
      ],
      "name": "setPublicKey",
      "outputs": [],
      "stateMutability": "nonpayable",
      "type": "function"
    },
    {
      "inputs": [
        {
          "internalType": "address",
          "name": "newOwner",
          "type": "address"
        }
      ],
      "name": "transferOwnership",
      "outputs": [],
      "stateMutability": "nonpayable",
      "type": "function"
    }
  ],
  "bytecode": "0x608060405234801561001057600080fd5b50604051610f13380380610f1383398101604081905261002f916100fa565b61003f61003a61008a565b61008e565b600280546001600160a01b039384166001600160a01b031991821617909155336000908152600760205260409020805460ff191660011790556003805492909316911617905561012c565b3390565b600080546001600160a01b038381166001600160a01b0319831681178455604051919092169283917f8be0079c531659141344cd1fd0a4f28419497f9722a3daafe3b4186f6b6457e09190a35050565b80516001600160a01b03811681146100f557600080fd5b919050565b6000806040838503121561010c578182fd5b610115836100de565b9150610123602084016100de565b90509250929050565b610dd88061013b6000396000f3fe608060405234801561001057600080fd5b50600436106100ea5760003560e01c806394dbed5a1161008c578063d279c19111610066578063d279c191146101be578063dde7cd51146101d1578063f2fde38b146101e4578063f82df42e146101f7576100ea565b806394dbed5a1461016b578063b203bb991461018b578063be345453146101ab576100ea565b806338af3eed116100c857806338af3eed1461012a578063715018a61461014857806383c17c55146101505780638da5cb5b14610163576100ea565b806301e1db32146100ef578063097eb759146101045780631c31f71014610117575b600080fd5b6101026100fd3660046108f3565b61020a565b005b6101026101123660046108f3565b610261565b6101026101253660046108f3565b6102dd565b610132610359565b60405161013f9190610ac3565b60405180910390f35b610102610368565b61010261015e3660046108f3565b61037c565b6101326103f8565b61017e6101793660046109ef565b610407565b60405161013f9190610b14565b61019e610199366004610916565b610539565b60405161013f9190610d1d565b61017e6101b93660046108f3565b610556565b6101026101cc3660046108f3565b61056b565b61017e6101df3660046108f3565b61065b565b6101026101f23660046108f3565b610670565b61010261020536600461094e565b6106aa565b6006546001600160a01b0316331461023d5760405162461bcd60e51b815260040161023490610c9a565b60405180910390fd5b6001600160a01b03166000908152600560205260409020805460ff19166001179055565b6102696103f8565b6001600160a01b0316336001600160a01b0316148061029257506002546001600160a01b031633145b6102ae5760405162461bcd60e51b815260040161023490610c08565b6003805473ffffffffffffffffffffffffffffffffffffffff19166001600160a01b0392909216919091179055565b6102e56103f8565b6001600160a01b0316336001600160a01b0316148061030e57506002546001600160a01b031633145b61032a5760405162461bcd60e51b815260040161023490610c08565b6002805473ffffffffffffffffffffffffffffffffffffffff19166001600160a01b0392909216919091179055565b6002546001600160a01b031681565b610370610853565b61037a6000610892565b565b6103846103f8565b6001600160a01b0316336001600160a01b031614806103ad57506002546001600160a01b031633145b6103c95760405162461bcd60e51b815260040161023490610c08565b6006805473ffffffffffffffffffffffffffffffffffffffff19166001600160a01b0392909216919091179055565b6000546001600160a01b031690565b3360009081526005602052604081205460ff166104365760405162461bcd60e51b815260040161023490610b9a565b60008686604051610448929190610a82565b60405190819003812061045d91602001610a92565b604051602081830303815290604052805190602001209050600181868686604051600081526020016040526040516104989493929190610b1f565b6020604051602081039080840390855afa1580156104ba573d6000803e3d6000fd5b50506040517fffffffffffffffffffffffffffffffffffffffffffffffffffffffffffffffe001516003546001600160a01b03908116911614925050811561052f57600061050a878901896108f3565b6001600160a01b03166000908152600760205260409020805460ff1916841515179055505b5095945050505050565b600460209081526000928352604080842090915290825290205481565b60056020526000908152604090205460ff1681565b6001600160a01b0381166000818152600460208181526040808420338086529252928390205492517fa9059cbb00000000000000000000000000000000000000000000000000000000815263a9059cbb936105c893909101610afb565b602060405180830381600087803b1580156105e257600080fd5b505af11580156105f6573d6000803e3d6000fd5b505050506040513d601f19601f8201168201806040525081019061061a91906109cf565b6106365760405162461bcd60e51b815260040161023490610bd1565b6001600160a01b03166000908152600460209081526040808320338452909152812055565b60076020526000908152604090205460ff1681565b610678610853565b6001600160a01b03811661069e5760405162461bcd60e51b815260040161023490610b3d565b6106a781610892565b50565b3360009081526005602052604090205460ff166106d95760405162461bcd60e51b815260040161023490610b9a565b8160005b8181101561084c5784848281811061070557634e487b7160e01b600052603260045260246000fd5b9050604002016020013560046000856001600160a01b03166001600160a01b03168152602001908152602001600020600087878581811061075657634e487b7160e01b600052603260045260246000fd5b61076c92602060409092020190810191506108f3565b6001600160a01b03166001600160a01b03168152602001908152602001600020600082825461079b9190610d26565b909155507f57cccde60e35b5d41e9ef05831a12eb1079b8add56fb8f9784316da04eeaeb4590508585838181106107e257634e487b7160e01b600052603260045260246000fd5b6107f892602060409092020190810191506108f3565b3387878581811061081957634e487b7160e01b600052603260045260246000fd5b9050604002016020013560405161083293929190610ad7565b60405180910390a18061084481610d3e565b9150506106dd565b5050505050565b61085b6108ef565b6001600160a01b031661086c6103f8565b6001600160a01b03161461037a5760405162461bcd60e51b815260040161023490610c65565b600080546001600160a01b0383811673ffffffffffffffffffffffffffffffffffffffff19831681178455604051919092169283917f8be0079c531659141344cd1fd0a4f28419497f9722a3daafe3b4186f6b6457e09190a35050565b3390565b600060208284031215610904578081fd5b813561090f81610d8d565b9392505050565b60008060408385031215610928578081fd5b823561093381610d8d565b9150602083013561094381610d8d565b809150509250929050565b600080600060408486031215610962578081fd5b833567ffffffffffffffff80821115610979578283fd5b818601915086601f83011261098c578283fd5b81358181111561099a578384fd5b8760206040830285010111156109ae578384fd5b602092830195509350508401356109c481610d8d565b809150509250925092565b6000602082840312156109e0578081fd5b8151801515811461090f578182fd5b600080600080600060808688031215610a06578081fd5b853567ffffffffffffffff80821115610a1d578283fd5b818801915088601f830112610a30578283fd5b813581811115610a3e578384fd5b896020828501011115610a4f578384fd5b6020928301975095505086013560ff81168114610a6a578182fd5b94979396509394604081013594506060013592915050565b6000828483379101908152919050565b7f19457468657265756d205369676e6564204d6573736167653a0a3332000000008152601c810191909152603c0190565b6001600160a01b0391909116815260200190565b6001600160a01b039384168152919092166020820152604081019190915260600190565b6001600160a01b03929092168252602082015260400190565b901515815260200190565b93845260ff9290921660208401526040830152606082015260800190565b60208082526026908201527f4f776e61626c653a206e6577206f776e657220697320746865207a65726f206160408201527f6464726573730000000000000000000000000000000000000000000000000000606082015260800190565b60208082526017908201527f43616c6c6572206973206e6f742061206c6f7474657279000000000000000000604082015260600190565b6020808252601b908201527f636c61696d5265776172643a207472616e73666572206661696c640000000000604082015260600190565b60208082526022908201527f43616c6c6572206973206e6f742062656e6566696369617279206f72206f776e60408201527f6572000000000000000000000000000000000000000000000000000000000000606082015260800190565b6020808252818101527f4f776e61626c653a2063616c6c6572206973206e6f7420746865206f776e6572604082015260600190565b60208082526041908201527f72656769737465724e65774c6f74746572793a20796f7520617265206e6f742060408201527f616c6c6f77656420746f207265676973746572206e6577206c6f74746572696560608201527f7300000000000000000000000000000000000000000000000000000000000000608082015260a00190565b90815260200190565b60008219821115610d3957610d39610d77565b500190565b60007fffffffffffffffffffffffffffffffffffffffffffffffffffffffffffffffff821415610d7057610d70610d77565b5060010190565b634e487b7160e01b600052601160045260246000fd5b6001600160a01b03811681146106a757600080fdfea2646970667358221220540dfece980ea40ae0739102791d2ab2aafc094bede92c8871a75f7ad530420f64736f6c63430008010033",
  "linkReferences": {},
  "deployedLinkReferences": {}
}